{
  "contracts/TicTacToe.sol": {
    "TicTacToe": {
      "abi": [
        {
          "anonymous": false,
          "inputs": [
            {
              "indexed": false,
              "internalType": "enum TicTacToe.GameState",
              "name": "",
              "type": "uint8"
            },
            {
              "indexed": false,
              "internalType": "uint8[9]",
              "name": "currentBoard",
              "type": "uint8[9]"
            }
          ],
          "name": "GameStateUpdated",
          "type": "event"
        },
        {
          "anonymous": false,
          "inputs": [
            {
              "indexed": false,
              "internalType": "uint256",
              "name": "pot",
              "type": "uint256"
            }
          ],
          "name": "PotUpdated",
          "type": "event"
        },
        {
          "inputs": [],
          "name": "claimReward",
          "outputs": [],
          "stateMutability": "nonpayable",
          "type": "function"
        },
        {
          "inputs": [],
          "name": "getCurrentBoard",
          "outputs": [
            {
              "internalType": "uint8[9]",
              "name": "",
              "type": "uint8[9]"
            }
          ],
          "stateMutability": "view",
          "type": "function"
        },
        {
          "inputs": [],
          "name": "getGameState",
          "outputs": [
            {
              "internalType": "enum TicTacToe.GameState",
              "name": "",
              "type": "uint8"
            }
          ],
          "stateMutability": "view",
          "type": "function"
        },
        {
          "inputs": [],
          "name": "getPlayerO",
          "outputs": [
            {
              "internalType": "address",
              "name": "",
              "type": "address"
            }
          ],
          "stateMutability": "view",
          "type": "function"
        },
        {
          "inputs": [],
          "name": "getPlayerX",
          "outputs": [
            {
              "internalType": "address",
              "name": "",
              "type": "address"
            }
          ],
          "stateMutability": "view",
          "type": "function"
        },
        {
          "inputs": [],
          "name": "getPot",
          "outputs": [
            {
              "internalType": "uint256",
              "name": "",
              "type": "uint256"
            }
          ],
          "stateMutability": "view",
          "type": "function"
        },
        {
          "inputs": [
            {
              "internalType": "uint8",
              "name": "index",
              "type": "uint8"
            }
          ],
          "name": "handlePlay",
          "outputs": [],
          "stateMutability": "nonpayable",
          "type": "function"
        },
        {
          "inputs": [],
          "name": "joinGame",
          "outputs": [],
          "stateMutability": "payable",
          "type": "function"
        },
        {
          "inputs": [],
          "name": "resetBoard",
          "outputs": [],
          "stateMutability": "nonpayable",
          "type": "function"
        }
      ],
      "evm": {
        "bytecode": {
          "linkReferences": {},
          "object": "608060405260008060006101000a81548160ff021916908360058111156200002c576200002b6200017c565b5b0217905550604051806101200160405280600060ff168152602001600060ff168152602001600060ff168152602001600060ff168152602001600060ff168152602001600060ff168152602001600060ff168152602001600060ff168152602001600060ff168152506001906009620000a7929190620000bc565b50348015620000b557600080fd5b50620001ab565b826009601f016020900481019282156200014a5791602002820160005b838211156200011957835183826101000a81548160ff021916908360ff1602179055509260200192600101602081600001049283019260010302620000d9565b8015620001485782816101000a81549060ff021916905560010160208160000104928301926001030262000119565b505b5090506200015991906200015d565b5090565b5b80821115620001785760008160009055506001016200015e565b5090565b7f4e487b7100000000000000000000000000000000000000000000000000000000600052602160045260246000fd5b61294880620001bb6000396000f3fe6080604052600436106100865760003560e01c8063b88a802f11610059578063b88a802f14610123578063c06af9961461013a578063d4f77b1c14610165578063d9a4264c1461016f578063da399dfd1461019a57610086565b8063403c9fa81461008b5780634410b66f146100b6578063455a2939146100e1578063b7d0628b146100f8575b600080fd5b34801561009757600080fd5b506100a06101c3565b6040516100ad9190611504565b60405180910390f35b3480156100c257600080fd5b506100cb6101cd565b6040516100d891906115d7565b60405180910390f35b3480156100ed57600080fd5b506100f661023e565b005b34801561010457600080fd5b5061010d6103eb565b60405161011a919061166a565b60405180910390f35b34801561012f57600080fd5b50610138610401565b005b34801561014657600080fd5b5061014f6108f5565b60405161015c91906116c6565b60405180910390f35b61016d61091f565b005b34801561017b57600080fd5b50610184610c10565b60405161019191906116c6565b60405180910390f35b3480156101a657600080fd5b506101c160048036038101906101bc9190611712565b610c3a565b005b6000600454905090565b6101d5611411565b6001600980602002604051908101604052809291908260098015610234576020028201916000905b82829054906101000a900460ff1660ff16815260200190600101906020826000010492830192600103820291508084116101fd5790505b5050505050905090565b604051806101200160405280600060ff168152602001600060ff168152602001600060ff168152602001600060ff168152602001600060ff168152602001600060ff168152602001600060ff168152602001600060ff168152602001600060ff1681525060019060096102b2929190611434565b5060008060006101000a81548160ff021916908360058111156102d8576102d76115f3565b5b02179055506000600260006101000a81548173ffffffffffffffffffffffffffffffffffffffff021916908373ffffffffffffffffffffffffffffffffffffffff1602179055506000600360006101000a81548173ffffffffffffffffffffffffffffffffffffffff021916908373ffffffffffffffffffffffffffffffffffffffff16021790555060006004819055507f686f48077f0e1c8fdd28428ad5af155405d457ff04dfefd482bbe683d53e42d360008054906101000a900460ff1660016040516103a892919061245f565b60405180910390a17f2ba2169cd2502a6cc4fd55f87f2dcbceef588b593aa4fdc883d4fc62e65ed6a96004546040516103e19190611504565b60405180910390a1565b60008060009054906101000a900460ff16905090565b60036005811115610415576104146115f3565b5b60008054906101000a900460ff166005811115610435576104346115f3565b5b14806104725750600460058111156104505761044f6115f3565b5b60008054906101000a900460ff1660058111156104705761046f6115f3565b5b145b806104ad575060058081111561048b5761048a6115f3565b5b60008054906101000a900460ff1660058111156104ab576104aa6115f3565b5b145b6104ec576040517f08c379a00000000000000000000000000000000000000000000000000000000081526004016104e3906124e6565b60405180910390fd5b60036005811115610500576104ff6115f3565b5b60008054906101000a900460ff1660058111156105205761051f6115f3565b5b14801561057a5750600260009054906101000a900473ffffffffffffffffffffffffffffffffffffffff1673ffffffffffffffffffffffffffffffffffffffff163373ffffffffffffffffffffffffffffffffffffffff16145b8061060f575060046005811115610594576105936115f3565b5b60008054906101000a900460ff1660058111156105b4576105b36115f3565b5b14801561060e5750600360009054906101000a900473ffffffffffffffffffffffffffffffffffffffff1673ffffffffffffffffffffffffffffffffffffffff163373ffffffffffffffffffffffffffffffffffffffff16145b5b806106fb5750600580811115610628576106276115f3565b5b60008054906101000a900460ff166005811115610648576106476115f3565b5b1480156106fa5750600260009054906101000a900473ffffffffffffffffffffffffffffffffffffffff1673ffffffffffffffffffffffffffffffffffffffff163373ffffffffffffffffffffffffffffffffffffffff1614806106f95750600360009054906101000a900473ffffffffffffffffffffffffffffffffffffffff1673ffffffffffffffffffffffffffffffffffffffff163373ffffffffffffffffffffffffffffffffffffffff16145b5b5b61073a576040517f08c379a000000000000000000000000000000000000000000000000000000000815260040161073190612578565b60405180910390fd5b600060058081111561074f5761074e6115f3565b5b60008054906101000a900460ff16600581111561076f5761076e6115f3565b5b0361086457600260045461078391906125f6565b90506000600481905550600260009054906101000a900473ffffffffffffffffffffffffffffffffffffffff1673ffffffffffffffffffffffffffffffffffffffff166108fc829081150290604051600060405180830381858888f193505050501580156107f5573d6000803e3d6000fd5b50600360009054906101000a900473ffffffffffffffffffffffffffffffffffffffff1673ffffffffffffffffffffffffffffffffffffffff166108fc829081150290604051600060405180830381858888f1935050505015801561085e573d6000803e3d6000fd5b506108b9565b600454905060006004819055503373ffffffffffffffffffffffffffffffffffffffff166108fc829081150290604051600060405180830381858888f193505050501580156108b7573d6000803e3d6000fd5b505b7f2ba2169cd2502a6cc4fd55f87f2dcbceef588b593aa4fdc883d4fc62e65ed6a96004546040516108ea9190611504565b60405180910390a150565b6000600360009054906101000a900473ffffffffffffffffffffffffffffffffffffffff16905090565b60006005811115610933576109326115f3565b5b60008054906101000a900460ff166005811115610953576109526115f3565b5b14610993576040517f08c379a000000000000000000000000000000000000000000000000000000000815260040161098a90612673565b60405180910390fd5b3373ffffffffffffffffffffffffffffffffffffffff16600260009054906101000a900473ffffffffffffffffffffffffffffffffffffffff1673ffffffffffffffffffffffffffffffffffffffff1603610a23576040517f08c379a0000000000000000000000000000000000000000000000000000000008152600401610a1a906126df565b60405180910390fd5b66038d7ea4c68000341015610a6d576040517f08c379a0000000000000000000000000000000000000000000000000000000008152600401610a649061274b565b60405180910390fd5b600073ffffffffffffffffffffffffffffffffffffffff16600260009054906101000a900473ffffffffffffffffffffffffffffffffffffffff1673ffffffffffffffffffffffffffffffffffffffff1603610b095733600260006101000a81548173ffffffffffffffffffffffffffffffffffffffff021916908373ffffffffffffffffffffffffffffffffffffffff160217905550610b75565b33600360006101000a81548173ffffffffffffffffffffffffffffffffffffffff021916908373ffffffffffffffffffffffffffffffffffffffff16021790555060016000806101000a81548160ff02191690836005811115610b6f57610b6e6115f3565b5b02179055505b3460046000828254610b87919061276b565b925050819055507f686f48077f0e1c8fdd28428ad5af155405d457ff04dfefd482bbe683d53e42d360008054906101000a900460ff166001604051610bcd92919061245f565b60405180910390a17f2ba2169cd2502a6cc4fd55f87f2dcbceef588b593aa4fdc883d4fc62e65ed6a9600454604051610c069190611504565b60405180910390a1565b6000600260009054906101000a900473ffffffffffffffffffffffffffffffffffffffff16905090565b60016005811115610c4e57610c4d6115f3565b5b60008054906101000a900460ff166005811115610c6e57610c6d6115f3565b5b148015610cc85750600260009054906101000a900473ffffffffffffffffffffffffffffffffffffffff1673ffffffffffffffffffffffffffffffffffffffff163373ffffffffffffffffffffffffffffffffffffffff16145b80610d5d575060026005811115610ce257610ce16115f3565b5b60008054906101000a900460ff166005811115610d0257610d016115f3565b5b148015610d5c5750600360009054906101000a900473ffffffffffffffffffffffffffffffffffffffff1673ffffffffffffffffffffffffffffffffffffffff163373ffffffffffffffffffffffffffffffffffffffff16145b5b610d9c576040517f08c379a0000000000000000000000000000000000000000000000000000000008152600401610d93906127eb565b60405180910390fd5b60098160ff1610610de2576040517f08c379a0000000000000000000000000000000000000000000000000000000008152600401610dd990612857565b60405180910390fd5b600060018260ff1660098110610dfb57610dfa612877565b5b602091828204019190069054906101000a900460ff1660ff1614610e54576040517f08c379a0000000000000000000000000000000000000000000000000000000008152600401610e4b906128f2565b60405180910390fd5b60016005811115610e6857610e676115f3565b5b60008054906101000a900460ff166005811115610e8857610e876115f3565b5b14610e94576002610e97565b60015b60018260ff1660098110610eae57610ead612877565b5b602091828204019190066101000a81548160ff021916908360ff160217905550610ed6610ed9565b50565b6000610ee3611025565b905060008160ff1614610f325760018160ff1614610f02576004610f05565b60035b6000806101000a81548160ff02191690836005811115610f2857610f276115f3565b5b0217905550610fdb565b610f3a6113a6565b15610f6e5760056000806101000a81548160ff02191690836005811115610f6457610f636115f3565b5b0217905550610fda565b60016005811115610f8257610f816115f3565b5b60008054906101000a900460ff166005811115610fa257610fa16115f3565b5b14610fae576001610fb1565b60025b6000806101000a81548160ff02191690836005811115610fd457610fd36115f3565b5b02179055505b5b7f686f48077f0e1c8fdd28428ad5af155405d457ff04dfefd482bbe683d53e42d360008054906101000a900460ff16600160405161101a92919061245f565b60405180910390a150565b6000806040518061010001604052806040518060600160405280600060ff168152602001600160ff168152602001600260ff1681525081526020016040518060600160405280600360ff168152602001600460ff168152602001600560ff1681525081526020016040518060600160405280600660ff168152602001600760ff168152602001600860ff1681525081526020016040518060600160405280600060ff168152602001600360ff168152602001600660ff1681525081526020016040518060600160405280600160ff168152602001600460ff168152602001600760ff1681525081526020016040518060600160405280600260ff168152602001600560ff168152602001600860ff1681525081526020016040518060600160405280600060ff168152602001600460ff168152602001600860ff1681525081526020016040518060600160405280600260ff168152602001600460ff168152602001600660ff16815250815250905060005b60088160ff16101561139c576000828260ff16600881106111bb576111ba612877565b5b60200201516000600381106111d3576111d2612877565b5b602002015190506000838360ff16600881106111f2576111f1612877565b5b602002015160016003811061120a57611209612877565b5b602002015190506000848460ff166008811061122957611228612877565b5b602002015160026003811061124157611240612877565b5b60200201519050600060018460ff166009811061126157611260612877565b5b602091828204019190069054906101000a900460ff1660ff16141580156112e5575060018260ff166009811061129a57611299612877565b5b602091828204019190069054906101000a900460ff1660ff1660018460ff16600981106112ca576112c9612877565b5b602091828204019190069054906101000a900460ff1660ff16145b801561134e575060018160ff166009811061130357611302612877565b5b602091828204019190069054906101000a900460ff1660ff1660018460ff166009811061133357611332612877565b5b602091828204019190069054906101000a900460ff1660ff16145b1561138c5760018360ff166009811061136a57611369612877565b5b602091828204019190069054906101000a900460ff16955050505050506113a3565b5050508080600101915050611197565b5060009150505b90565b600080600090505b60098160ff16101561140857600060018260ff16600981106113d3576113d2612877565b5b602091828204019190069054906101000a900460ff1660ff16036113fb57600091505061140e565b80806001019150506113ae565b50600190505b90565b604051806101200160405280600990602082028036833780820191505090505090565b826009601f016020900481019282156114bd5791602002820160005b8382111561148e57835183826101000a81548160ff021916908360ff1602179055509260200192600101602081600001049283019260010302611450565b80156114bb5782816101000a81549060ff021916905560010160208160000104928301926001030261148e565b505b5090506114ca91906114ce565b5090565b5b808211156114e75760008160009055506001016114cf565b5090565b6000819050919050565b6114fe816114eb565b82525050565b600060208201905061151960008301846114f5565b92915050565b600060099050919050565b600081905092915050565b6000819050919050565b600060ff82169050919050565b6115558161153f565b82525050565b6000611567838361154c565b60208301905092915050565b6000602082019050919050565b6115898161151f565b611593818461152a565b925061159e82611535565b8060005b838110156115cf5781516115b6878261155b565b96506115c183611573565b9250506001810190506115a2565b505050505050565b6000610120820190506115ed6000830184611580565b92915050565b7f4e487b7100000000000000000000000000000000000000000000000000000000600052602160045260246000fd5b60068110611633576116326115f3565b5b50565b600081905061164482611622565b919050565b600061165482611636565b9050919050565b61166481611649565b82525050565b600060208201905061167f600083018461165b565b92915050565b600073ffffffffffffffffffffffffffffffffffffffff82169050919050565b60006116b082611685565b9050919050565b6116c0816116a5565b82525050565b60006020820190506116db60008301846116b7565b92915050565b600080fd5b6116ef8161153f565b81146116fa57600080fd5b50565b60008135905061170c816116e6565b92915050565b600060208284031215611728576117276116e1565b5b6000611736848285016116fd565b91505092915050565b600060099050919050565b6000819050919050565b60008160001c9050919050565b600060ff82169050919050565b600061178161177c83611754565b611761565b9050919050565b60008160081c9050919050565b60006117a86117a383611788565b611761565b9050919050565b60008160101c9050919050565b60006117cf6117ca836117af565b611761565b9050919050565b60008160181c9050919050565b60006117f66117f1836117d6565b611761565b9050919050565b60008160201c9050919050565b600061181d611818836117fd565b611761565b9050919050565b60008160281c9050919050565b600061184461183f83611824565b611761565b9050919050565b60008160301c9050919050565b600061186b6118668361184b565b611761565b9050919050565b60008160381c9050919050565b600061189261188d83611872565b611761565b9050919050565b60008160401c9050919050565b60006118b96118b483611899565b611761565b9050919050565b60008160481c9050919050565b60006118e06118db836118c0565b611761565b9050919050565b60008160501c9050919050565b6000611907611902836118e7565b611761565b9050919050565b60008160581c9050919050565b600061192e6119298361190e565b611761565b9050919050565b60008160601c9050919050565b600061195561195083611935565b611761565b9050919050565b60008160681c9050919050565b600061197c6119778361195c565b611761565b9050919050565b60008160701c9050919050565b60006119a361199e83611983565b611761565b9050919050565b60008160781c9050919050565b60006119ca6119c5836119aa565b611761565b9050919050565b60008160801c9050919050565b60006119f16119ec836119d1565b611761565b9050919050565b60008160881c9050919050565b6000611a18611a13836119f8565b611761565b9050919050565b60008160901c9050919050565b6000611a3f611a3a83611a1f565b611761565b9050919050565b60008160981c9050919050565b6000611a66611a6183611a46565b611761565b9050919050565b60008160a01c9050919050565b6000611a8d611a8883611a6d565b611761565b9050919050565b60008160a81c9050919050565b6000611ab4611aaf83611a94565b611761565b9050919050565b60008160b01c9050919050565b6000611adb611ad683611abb565b611761565b9050919050565b60008160b81c9050919050565b6000611b02611afd83611ae2565b611761565b9050919050565b60008160c01c9050919050565b6000611b29611b2483611b09565b611761565b9050919050565b60008160c81c9050919050565b6000611b50611b4b83611b30565b611761565b9050919050565b60008160d01c9050919050565b6000611b77611b7283611b57565b611761565b9050919050565b60008160d81c9050919050565b6000611b9e611b9983611b7e565b611761565b9050919050565b60008160e01c9050919050565b6000611bc5611bc083611ba5565b611761565b9050919050565b60008160e81c9050919050565b6000611bec611be783611bcc565b611761565b9050919050565b60008160f01c9050919050565b6000611c13611c0e83611bf3565b611761565b9050919050565b60008160f81c9050919050565b6000611c3a611c3583611c1a565b611761565b9050919050565b611c4a8161173f565b611c54818461152a565b925082611c608361174a565b60008015611f8c575b83600160200382011015611f8b578154611c8b87611c868361176e565b61154c565b602087019650611ca387611c9e83611795565b61154c565b602087019650611cbb87611cb6836117bc565b61154c565b602087019650611cd387611cce836117e3565b61154c565b602087019650611ceb87611ce68361180a565b61154c565b602087019650611d0387611cfe83611831565b61154c565b602087019650611d1b87611d1683611858565b61154c565b602087019650611d3387611d2e8361187f565b61154c565b602087019650611d4b87611d46836118a6565b61154c565b602087019650611d6387611d5e836118cd565b61154c565b602087019650611d7b87611d76836118f4565b61154c565b602087019650611d9387611d8e8361191b565b61154c565b602087019650611dab87611da683611942565b61154c565b602087019650611dc387611dbe83611969565b61154c565b602087019650611ddb87611dd683611990565b61154c565b602087019650611df387611dee836119b7565b61154c565b602087019650611e0b87611e06836119de565b61154c565b602087019650611e2387611e1e83611a05565b61154c565b602087019650611e3b87611e3683611a2c565b61154c565b602087019650611e5387611e4e83611a53565b61154c565b602087019650611e6b87611e6683611a7a565b61154c565b602087019650611e8387611e7e83611aa1565b61154c565b602087019650611e9b87611e9683611ac8565b61154c565b602087019650611eb387611eae83611aef565b61154c565b602087019650611ecb87611ec683611b16565b61154c565b602087019650611ee387611ede83611b3d565b61154c565b602087019650611efb87611ef683611b64565b61154c565b602087019650611f1387611f0e83611b8b565b61154c565b602087019650611f2b87611f2683611bb2565b61154c565b602087019650611f4387611f3e83611bd9565b61154c565b602087019650611f5b87611f5683611c00565b61154c565b602087019650611f7387611f6e83611c27565b61154c565b60208701965060018301925050602081019050611c69565b5b600115612457578154600115611fbb57611fae87611fa98361176e565b61154c565b6020870196506001820191505b600115611fe157611fd487611fcf83611795565b61154c565b6020870196506001820191505b60011561200757611ffa87611ff5836117bc565b61154c565b6020870196506001820191505b60011561202d576120208761201b836117e3565b61154c565b6020870196506001820191505b60011561205357612046876120418361180a565b61154c565b6020870196506001820191505b6001156120795761206c8761206783611831565b61154c565b6020870196506001820191505b60011561209f576120928761208d83611858565b61154c565b6020870196506001820191505b6001156120c5576120b8876120b38361187f565b61154c565b6020870196506001820191505b6001156120eb576120de876120d9836118a6565b61154c565b6020870196506001820191505b60001561211157612104876120ff836118cd565b61154c565b6020870196506001820191505b6000156121375761212a87612125836118f4565b61154c565b6020870196506001820191505b60001561215d576121508761214b8361191b565b61154c565b6020870196506001820191505b600015612183576121768761217183611942565b61154c565b6020870196506001820191505b6000156121a95761219c8761219783611969565b61154c565b6020870196506001820191505b6000156121cf576121c2876121bd83611990565b61154c565b6020870196506001820191505b6000156121f5576121e8876121e3836119b7565b61154c565b6020870196506001820191505b60001561221b5761220e87612209836119de565b61154c565b6020870196506001820191505b600015612241576122348761222f83611a05565b61154c565b6020870196506001820191505b6000156122675761225a8761225583611a2c565b61154c565b6020870196506001820191505b60001561228d576122808761227b83611a53565b61154c565b6020870196506001820191505b6000156122b3576122a6876122a183611a7a565b61154c565b6020870196506001820191505b6000156122d9576122cc876122c783611aa1565b61154c565b6020870196506001820191505b6000156122ff576122f2876122ed83611ac8565b61154c565b6020870196506001820191505b600015612325576123188761231383611aef565b61154c565b6020870196506001820191505b60001561234b5761233e8761233983611b16565b61154c565b6020870196506001820191505b600015612371576123648761235f83611b3d565b61154c565b6020870196506001820191505b6000156123975761238a8761238583611b64565b61154c565b6020870196506001820191505b6000156123bd576123b0876123ab83611b8b565b61154c565b6020870196506001820191505b6000156123e3576123d6876123d183611bb2565b61154c565b6020870196506001820191505b600015612409576123fc876123f783611bd9565b61154c565b6020870196506001820191505b60001561242f576124228761241d83611c00565b61154c565b6020870196506001820191505b600015612455576124488761244383611c27565b61154c565b6020870196506001820191505b505b505050505050565b600061014082019050612475600083018561165b565b6124826020830184611c41565b9392505050565b600082825260208201905092915050565b7f47616d65206e6f7420656e646564207965740000000000000000000000000000600082015250565b60006124d0601283612489565b91506124db8261249a565b602082019050919050565b600060208201905081810360008301526124ff816124c3565b9050919050565b7f4f6e6c79207468652077696e6e6572206f7220706c617965727320696e20636160008201527f7365206f6620647261772063616e20636c61696d207468652072657761726400602082015250565b6000612562603f83612489565b915061256d82612506565b604082019050919050565b6000602082019050818103600083015261259181612555565b9050919050565b7f4e487b7100000000000000000000000000000000000000000000000000000000600052601260045260246000fd5b7f4e487b7100000000000000000000000000000000000000000000000000000000600052601160045260246000fd5b6000612601826114eb565b915061260c836114eb565b92508261261c5761261b612598565b5b828204905092915050565b7f47616d6520616c72656164792073746172746564000000000000000000000000600082015250565b600061265d601483612489565b915061266882612627565b602082019050919050565b6000602082019050818103600083015261268c81612650565b9050919050565b7f596f75206861766520616c7265616479206a6f696e6564000000000000000000600082015250565b60006126c9601783612489565b91506126d482612693565b602082019050919050565b600060208201905081810360008301526126f8816126bc565b9050919050565b7f4d696e696d756d207374616b6520697320302c303031204554482e0000000000600082015250565b6000612735601b83612489565b9150612740826126ff565b602082019050919050565b6000602082019050818103600083015261276481612728565b9050919050565b6000612776826114eb565b9150612781836114eb565b9250828201905080821115612799576127986125c7565b5b92915050565b7f496e76616c696420706c61796572206f722067616d6520737461746500000000600082015250565b60006127d5601c83612489565b91506127e08261279f565b602082019050919050565b60006020820190508181036000830152612804816127c8565b9050919050565b7f496e646578206f7574206f6620626f756e647300000000000000000000000000600082015250565b6000612841601383612489565b915061284c8261280b565b602082019050919050565b6000602082019050818103600083015261287081612834565b9050919050565b7f4e487b7100000000000000000000000000000000000000000000000000000000600052603260045260246000fd5b7f53717561726520616c72656164792066696c6c65640000000000000000000000600082015250565b60006128dc601583612489565b91506128e7826128a6565b602082019050919050565b6000602082019050818103600083015261290b816128cf565b905091905056fea2646970667358221220b0c500a640ce5366bfa114324c93a8a9cd69853fabe9fb4da842f2b1fde2093e64736f6c63430008180033",
          "opcodes": "PUSH1 0x80 PUSH1 0x40 MSTORE PUSH1 0x0 DUP1 PUSH1 0x0 PUSH2 0x100 EXP DUP2 SLOAD DUP2 PUSH1 0xFF MUL NOT AND SWAP1 DUP4 PUSH1 0x5 DUP2 GT ISZERO PUSH3 0x2C JUMPI PUSH3 0x2B PUSH3 0x17C JUMP JUMPDEST JUMPDEST MUL OR SWAP1 SSTORE POP PUSH1 0x40 MLOAD DUP1 PUSH2 0x120 ADD PUSH1 0x40 MSTORE DUP1 PUSH1 0x0 PUSH1 0xFF AND DUP2 MSTORE PUSH1 0x20 ADD PUSH1 0x0 PUSH1 0xFF AND DUP2 MSTORE PUSH1 0x20 ADD PUSH1 0x0 PUSH1 0xFF AND DUP2 MSTORE PUSH1 0x20 ADD PUSH1 0x0 PUSH1 0xFF AND DUP2 MSTORE PUSH1 0x20 ADD PUSH1 0x0 PUSH1 0xFF AND DUP2 MSTORE PUSH1 0x20 ADD PUSH1 0x0 PUSH1 0xFF AND DUP2 MSTORE PUSH1 0x20 ADD PUSH1 0x0 PUSH1 0xFF AND DUP2 MSTORE PUSH1 0x20 ADD PUSH1 0x0 PUSH1 0xFF AND DUP2 MSTORE PUSH1 0x20 ADD PUSH1 0x0 PUSH1 0xFF AND DUP2 MSTORE POP PUSH1 0x1 SWAP1 PUSH1 0x9 PUSH3 0xA7 SWAP3 SWAP2 SWAP1 PUSH3 0xBC JUMP JUMPDEST POP CALLVALUE DUP1 ISZERO PUSH3 0xB5 JUMPI PUSH1 0x0 DUP1 REVERT JUMPDEST POP PUSH3 0x1AB JUMP JUMPDEST DUP3 PUSH1 0x9 PUSH1 0x1F ADD PUSH1 0x20 SWAP1 DIV DUP2 ADD SWAP3 DUP3 ISZERO PUSH3 0x14A JUMPI SWAP2 PUSH1 0x20 MUL DUP3 ADD PUSH1 0x0 JUMPDEST DUP4 DUP3 GT ISZERO PUSH3 0x119 JUMPI DUP4 MLOAD DUP4 DUP3 PUSH2 0x100 EXP DUP2 SLOAD DUP2 PUSH1 0xFF MUL NOT AND SWAP1 DUP4 PUSH1 0xFF AND MUL OR SWAP1 SSTORE POP SWAP3 PUSH1 0x20 ADD SWAP3 PUSH1 0x1 ADD PUSH1 0x20 DUP2 PUSH1 0x0 ADD DIV SWAP3 DUP4 ADD SWAP3 PUSH1 0x1 SUB MUL PUSH3 0xD9 JUMP JUMPDEST DUP1 ISZERO PUSH3 0x148 JUMPI DUP3 DUP2 PUSH2 0x100 EXP DUP2 SLOAD SWAP1 PUSH1 0xFF MUL NOT AND SWAP1 SSTORE PUSH1 0x1 ADD PUSH1 0x20 DUP2 PUSH1 0x0 ADD DIV SWAP3 DUP4 ADD SWAP3 PUSH1 0x1 SUB MUL PUSH3 0x119 JUMP JUMPDEST POP JUMPDEST POP SWAP1 POP PUSH3 0x159 SWAP2 SWAP1 PUSH3 0x15D JUMP JUMPDEST POP SWAP1 JUMP JUMPDEST JUMPDEST DUP1 DUP3 GT ISZERO PUSH3 0x178 JUMPI PUSH1 0x0 DUP2 PUSH1 0x0 SWAP1 SSTORE POP PUSH1 0x1 ADD PUSH3 0x15E JUMP JUMPDEST POP SWAP1 JUMP JUMPDEST PUSH32 0x4E487B7100000000000000000000000000000000000000000000000000000000 PUSH1 0x0 MSTORE PUSH1 0x21 PUSH1 0x4 MSTORE PUSH1 0x24 PUSH1 0x0 REVERT JUMPDEST PUSH2 0x2948 DUP1 PUSH3 0x1BB PUSH1 0x0 CODECOPY PUSH1 0x0 RETURN INVALID PUSH1 0x80 PUSH1 0x40 MSTORE PUSH1 0x4 CALLDATASIZE LT PUSH2 0x86 JUMPI PUSH1 0x0 CALLDATALOAD PUSH1 0xE0 SHR DUP1 PUSH4 0xB88A802F GT PUSH2 0x59 JUMPI DUP1 PUSH4 0xB88A802F EQ PUSH2 0x123 JUMPI DUP1 PUSH4 0xC06AF996 EQ PUSH2 0x13A JUMPI DUP1 PUSH4 0xD4F77B1C EQ PUSH2 0x165 JUMPI DUP1 PUSH4 0xD9A4264C EQ PUSH2 0x16F JUMPI DUP1 PUSH4 0xDA399DFD EQ PUSH2 0x19A JUMPI PUSH2 0x86 JUMP JUMPDEST DUP1 PUSH4 0x403C9FA8 EQ PUSH2 0x8B JUMPI DUP1 PUSH4 0x4410B66F EQ PUSH2 0xB6 JUMPI DUP1 PUSH4 0x455A2939 EQ PUSH2 0xE1 JUMPI DUP1 PUSH4 0xB7D0628B EQ PUSH2 0xF8 JUMPI JUMPDEST PUSH1 0x0 DUP1 REVERT JUMPDEST CALLVALUE DUP1 ISZERO PUSH2 0x97 JUMPI PUSH1 0x0 DUP1 REVERT JUMPDEST POP PUSH2 0xA0 PUSH2 0x1C3 JUMP JUMPDEST PUSH1 0x40 MLOAD PUSH2 0xAD SWAP2 SWAP1 PUSH2 0x1504 JUMP JUMPDEST PUSH1 0x40 MLOAD DUP1 SWAP2 SUB SWAP1 RETURN JUMPDEST CALLVALUE DUP1 ISZERO PUSH2 0xC2 JUMPI PUSH1 0x0 DUP1 REVERT JUMPDEST POP PUSH2 0xCB PUSH2 0x1CD JUMP JUMPDEST PUSH1 0x40 MLOAD PUSH2 0xD8 SWAP2 SWAP1 PUSH2 0x15D7 JUMP JUMPDEST PUSH1 0x40 MLOAD DUP1 SWAP2 SUB SWAP1 RETURN JUMPDEST CALLVALUE DUP1 ISZERO PUSH2 0xED JUMPI PUSH1 0x0 DUP1 REVERT JUMPDEST POP PUSH2 0xF6 PUSH2 0x23E JUMP JUMPDEST STOP JUMPDEST CALLVALUE DUP1 ISZERO PUSH2 0x104 JUMPI PUSH1 0x0 DUP1 REVERT JUMPDEST POP PUSH2 0x10D PUSH2 0x3EB JUMP JUMPDEST PUSH1 0x40 MLOAD PUSH2 0x11A SWAP2 SWAP1 PUSH2 0x166A JUMP JUMPDEST PUSH1 0x40 MLOAD DUP1 SWAP2 SUB SWAP1 RETURN JUMPDEST CALLVALUE DUP1 ISZERO PUSH2 0x12F JUMPI PUSH1 0x0 DUP1 REVERT JUMPDEST POP PUSH2 0x138 PUSH2 0x401 JUMP JUMPDEST STOP JUMPDEST CALLVALUE DUP1 ISZERO PUSH2 0x146 JUMPI PUSH1 0x0 DUP1 REVERT JUMPDEST POP PUSH2 0x14F PUSH2 0x8F5 JUMP JUMPDEST PUSH1 0x40 MLOAD PUSH2 0x15C SWAP2 SWAP1 PUSH2 0x16C6 JUMP JUMPDEST PUSH1 0x40 MLOAD DUP1 SWAP2 SUB SWAP1 RETURN JUMPDEST PUSH2 0x16D PUSH2 0x91F JUMP JUMPDEST STOP JUMPDEST CALLVALUE DUP1 ISZERO PUSH2 0x17B JUMPI PUSH1 0x0 DUP1 REVERT JUMPDEST POP PUSH2 0x184 PUSH2 0xC10 JUMP JUMPDEST PUSH1 0x40 MLOAD PUSH2 0x191 SWAP2 SWAP1 PUSH2 0x16C6 JUMP JUMPDEST PUSH1 0x40 MLOAD DUP1 SWAP2 SUB SWAP1 RETURN JUMPDEST CALLVALUE DUP1 ISZERO PUSH2 0x1A6 JUMPI PUSH1 0x0 DUP1 REVERT JUMPDEST POP PUSH2 0x1C1 PUSH1 0x4 DUP1 CALLDATASIZE SUB DUP2 ADD SWAP1 PUSH2 0x1BC SWAP2 SWAP1 PUSH2 0x1712 JUMP JUMPDEST PUSH2 0xC3A JUMP JUMPDEST STOP JUMPDEST PUSH1 0x0 PUSH1 0x4 SLOAD SWAP1 POP SWAP1 JUMP JUMPDEST PUSH2 0x1D5 PUSH2 0x1411 JUMP JUMPDEST PUSH1 0x1 PUSH1 0x9 DUP1 PUSH1 0x20 MUL PUSH1 0x40 MLOAD SWAP1 DUP2 ADD PUSH1 0x40 MSTORE DUP1 SWAP3 SWAP2 SWAP1 DUP3 PUSH1 0x9 DUP1 ISZERO PUSH2 0x234 JUMPI PUSH1 0x20 MUL DUP3 ADD SWAP2 PUSH1 0x0 SWAP1 JUMPDEST DUP3 DUP3 SWAP1 SLOAD SWAP1 PUSH2 0x100 EXP SWAP1 DIV PUSH1 0xFF AND PUSH1 0xFF AND DUP2 MSTORE PUSH1 0x20 ADD SWAP1 PUSH1 0x1 ADD SWAP1 PUSH1 0x20 DUP3 PUSH1 0x0 ADD DIV SWAP3 DUP4 ADD SWAP3 PUSH1 0x1 SUB DUP3 MUL SWAP2 POP DUP1 DUP5 GT PUSH2 0x1FD JUMPI SWAP1 POP JUMPDEST POP POP POP POP POP SWAP1 POP SWAP1 JUMP JUMPDEST PUSH1 0x40 MLOAD DUP1 PUSH2 0x120 ADD PUSH1 0x40 MSTORE DUP1 PUSH1 0x0 PUSH1 0xFF AND DUP2 MSTORE PUSH1 0x20 ADD PUSH1 0x0 PUSH1 0xFF AND DUP2 MSTORE PUSH1 0x20 ADD PUSH1 0x0 PUSH1 0xFF AND DUP2 MSTORE PUSH1 0x20 ADD PUSH1 0x0 PUSH1 0xFF AND DUP2 MSTORE PUSH1 0x20 ADD PUSH1 0x0 PUSH1 0xFF AND DUP2 MSTORE PUSH1 0x20 ADD PUSH1 0x0 PUSH1 0xFF AND DUP2 MSTORE PUSH1 0x20 ADD PUSH1 0x0 PUSH1 0xFF AND DUP2 MSTORE PUSH1 0x20 ADD PUSH1 0x0 PUSH1 0xFF AND DUP2 MSTORE PUSH1 0x20 ADD PUSH1 0x0 PUSH1 0xFF AND DUP2 MSTORE POP PUSH1 0x1 SWAP1 PUSH1 0x9 PUSH2 0x2B2 SWAP3 SWAP2 SWAP1 PUSH2 0x1434 JUMP JUMPDEST POP PUSH1 0x0 DUP1 PUSH1 0x0 PUSH2 0x100 EXP DUP2 SLOAD DUP2 PUSH1 0xFF MUL NOT AND SWAP1 DUP4 PUSH1 0x5 DUP2 GT ISZERO PUSH2 0x2D8 JUMPI PUSH2 0x2D7 PUSH2 0x15F3 JUMP JUMPDEST JUMPDEST MUL OR SWAP1 SSTORE POP PUSH1 0x0 PUSH1 0x2 PUSH1 0x0 PUSH2 0x100 EXP DUP2 SLOAD DUP2 PUSH20 0xFFFFFFFFFFFFFFFFFFFFFFFFFFFFFFFFFFFFFFFF MUL NOT AND SWAP1 DUP4 PUSH20 0xFFFFFFFFFFFFFFFFFFFFFFFFFFFFFFFFFFFFFFFF AND MUL OR SWAP1 SSTORE POP PUSH1 0x0 PUSH1 0x3 PUSH1 0x0 PUSH2 0x100 EXP DUP2 SLOAD DUP2 PUSH20 0xFFFFFFFFFFFFFFFFFFFFFFFFFFFFFFFFFFFFFFFF MUL NOT AND SWAP1 DUP4 PUSH20 0xFFFFFFFFFFFFFFFFFFFFFFFFFFFFFFFFFFFFFFFF AND MUL OR SWAP1 SSTORE POP PUSH1 0x0 PUSH1 0x4 DUP2 SWAP1 SSTORE POP PUSH32 0x686F48077F0E1C8FDD28428AD5AF155405D457FF04DFEFD482BBE683D53E42D3 PUSH1 0x0 DUP1 SLOAD SWAP1 PUSH2 0x100 EXP SWAP1 DIV PUSH1 0xFF AND PUSH1 0x1 PUSH1 0x40 MLOAD PUSH2 0x3A8 SWAP3 SWAP2 SWAP1 PUSH2 0x245F JUMP JUMPDEST PUSH1 0x40 MLOAD DUP1 SWAP2 SUB SWAP1 LOG1 PUSH32 0x2BA2169CD2502A6CC4FD55F87F2DCBCEEF588B593AA4FDC883D4FC62E65ED6A9 PUSH1 0x4 SLOAD PUSH1 0x40 MLOAD PUSH2 0x3E1 SWAP2 SWAP1 PUSH2 0x1504 JUMP JUMPDEST PUSH1 0x40 MLOAD DUP1 SWAP2 SUB SWAP1 LOG1 JUMP JUMPDEST PUSH1 0x0 DUP1 PUSH1 0x0 SWAP1 SLOAD SWAP1 PUSH2 0x100 EXP SWAP1 DIV PUSH1 0xFF AND SWAP1 POP SWAP1 JUMP JUMPDEST PUSH1 0x3 PUSH1 0x5 DUP2 GT ISZERO PUSH2 0x415 JUMPI PUSH2 0x414 PUSH2 0x15F3 JUMP JUMPDEST JUMPDEST PUSH1 0x0 DUP1 SLOAD SWAP1 PUSH2 0x100 EXP SWAP1 DIV PUSH1 0xFF AND PUSH1 0x5 DUP2 GT ISZERO PUSH2 0x435 JUMPI PUSH2 0x434 PUSH2 0x15F3 JUMP JUMPDEST JUMPDEST EQ DUP1 PUSH2 0x472 JUMPI POP PUSH1 0x4 PUSH1 0x5 DUP2 GT ISZERO PUSH2 0x450 JUMPI PUSH2 0x44F PUSH2 0x15F3 JUMP JUMPDEST JUMPDEST PUSH1 0x0 DUP1 SLOAD SWAP1 PUSH2 0x100 EXP SWAP1 DIV PUSH1 0xFF AND PUSH1 0x5 DUP2 GT ISZERO PUSH2 0x470 JUMPI PUSH2 0x46F PUSH2 0x15F3 JUMP JUMPDEST JUMPDEST EQ JUMPDEST DUP1 PUSH2 0x4AD JUMPI POP PUSH1 0x5 DUP1 DUP2 GT ISZERO PUSH2 0x48B JUMPI PUSH2 0x48A PUSH2 0x15F3 JUMP JUMPDEST JUMPDEST PUSH1 0x0 DUP1 SLOAD SWAP1 PUSH2 0x100 EXP SWAP1 DIV PUSH1 0xFF AND PUSH1 0x5 DUP2 GT ISZERO PUSH2 0x4AB JUMPI PUSH2 0x4AA PUSH2 0x15F3 JUMP JUMPDEST JUMPDEST EQ JUMPDEST PUSH2 0x4EC JUMPI PUSH1 0x40 MLOAD PUSH32 0x8C379A000000000000000000000000000000000000000000000000000000000 DUP2 MSTORE PUSH1 0x4 ADD PUSH2 0x4E3 SWAP1 PUSH2 0x24E6 JUMP JUMPDEST PUSH1 0x40 MLOAD DUP1 SWAP2 SUB SWAP1 REVERT JUMPDEST PUSH1 0x3 PUSH1 0x5 DUP2 GT ISZERO PUSH2 0x500 JUMPI PUSH2 0x4FF PUSH2 0x15F3 JUMP JUMPDEST JUMPDEST PUSH1 0x0 DUP1 SLOAD SWAP1 PUSH2 0x100 EXP SWAP1 DIV PUSH1 0xFF AND PUSH1 0x5 DUP2 GT ISZERO PUSH2 0x520 JUMPI PUSH2 0x51F PUSH2 0x15F3 JUMP JUMPDEST JUMPDEST EQ DUP1 ISZERO PUSH2 0x57A JUMPI POP PUSH1 0x2 PUSH1 0x0 SWAP1 SLOAD SWAP1 PUSH2 0x100 EXP SWAP1 DIV PUSH20 0xFFFFFFFFFFFFFFFFFFFFFFFFFFFFFFFFFFFFFFFF AND PUSH20 0xFFFFFFFFFFFFFFFFFFFFFFFFFFFFFFFFFFFFFFFF AND CALLER PUSH20 0xFFFFFFFFFFFFFFFFFFFFFFFFFFFFFFFFFFFFFFFF AND EQ JUMPDEST DUP1 PUSH2 0x60F JUMPI POP PUSH1 0x4 PUSH1 0x5 DUP2 GT ISZERO PUSH2 0x594 JUMPI PUSH2 0x593 PUSH2 0x15F3 JUMP JUMPDEST JUMPDEST PUSH1 0x0 DUP1 SLOAD SWAP1 PUSH2 0x100 EXP SWAP1 DIV PUSH1 0xFF AND PUSH1 0x5 DUP2 GT ISZERO PUSH2 0x5B4 JUMPI PUSH2 0x5B3 PUSH2 0x15F3 JUMP JUMPDEST JUMPDEST EQ DUP1 ISZERO PUSH2 0x60E JUMPI POP PUSH1 0x3 PUSH1 0x0 SWAP1 SLOAD SWAP1 PUSH2 0x100 EXP SWAP1 DIV PUSH20 0xFFFFFFFFFFFFFFFFFFFFFFFFFFFFFFFFFFFFFFFF AND PUSH20 0xFFFFFFFFFFFFFFFFFFFFFFFFFFFFFFFFFFFFFFFF AND CALLER PUSH20 0xFFFFFFFFFFFFFFFFFFFFFFFFFFFFFFFFFFFFFFFF AND EQ JUMPDEST JUMPDEST DUP1 PUSH2 0x6FB JUMPI POP PUSH1 0x5 DUP1 DUP2 GT ISZERO PUSH2 0x628 JUMPI PUSH2 0x627 PUSH2 0x15F3 JUMP JUMPDEST JUMPDEST PUSH1 0x0 DUP1 SLOAD SWAP1 PUSH2 0x100 EXP SWAP1 DIV PUSH1 0xFF AND PUSH1 0x5 DUP2 GT ISZERO PUSH2 0x648 JUMPI PUSH2 0x647 PUSH2 0x15F3 JUMP JUMPDEST JUMPDEST EQ DUP1 ISZERO PUSH2 0x6FA JUMPI POP PUSH1 0x2 PUSH1 0x0 SWAP1 SLOAD SWAP1 PUSH2 0x100 EXP SWAP1 DIV PUSH20 0xFFFFFFFFFFFFFFFFFFFFFFFFFFFFFFFFFFFFFFFF AND PUSH20 0xFFFFFFFFFFFFFFFFFFFFFFFFFFFFFFFFFFFFFFFF AND CALLER PUSH20 0xFFFFFFFFFFFFFFFFFFFFFFFFFFFFFFFFFFFFFFFF AND EQ DUP1 PUSH2 0x6F9 JUMPI POP PUSH1 0x3 PUSH1 0x0 SWAP1 SLOAD SWAP1 PUSH2 0x100 EXP SWAP1 DIV PUSH20 0xFFFFFFFFFFFFFFFFFFFFFFFFFFFFFFFFFFFFFFFF AND PUSH20 0xFFFFFFFFFFFFFFFFFFFFFFFFFFFFFFFFFFFFFFFF AND CALLER PUSH20 0xFFFFFFFFFFFFFFFFFFFFFFFFFFFFFFFFFFFFFFFF AND EQ JUMPDEST JUMPDEST JUMPDEST PUSH2 0x73A JUMPI PUSH1 0x40 MLOAD PUSH32 0x8C379A000000000000000000000000000000000000000000000000000000000 DUP2 MSTORE PUSH1 0x4 ADD PUSH2 0x731 SWAP1 PUSH2 0x2578 JUMP JUMPDEST PUSH1 0x40 MLOAD DUP1 SWAP2 SUB SWAP1 REVERT JUMPDEST PUSH1 0x0 PUSH1 0x5 DUP1 DUP2 GT ISZERO PUSH2 0x74F JUMPI PUSH2 0x74E PUSH2 0x15F3 JUMP JUMPDEST JUMPDEST PUSH1 0x0 DUP1 SLOAD SWAP1 PUSH2 0x100 EXP SWAP1 DIV PUSH1 0xFF AND PUSH1 0x5 DUP2 GT ISZERO PUSH2 0x76F JUMPI PUSH2 0x76E PUSH2 0x15F3 JUMP JUMPDEST JUMPDEST SUB PUSH2 0x864 JUMPI PUSH1 0x2 PUSH1 0x4 SLOAD PUSH2 0x783 SWAP2 SWAP1 PUSH2 0x25F6 JUMP JUMPDEST SWAP1 POP PUSH1 0x0 PUSH1 0x4 DUP2 SWAP1 SSTORE POP PUSH1 0x2 PUSH1 0x0 SWAP1 SLOAD SWAP1 PUSH2 0x100 EXP SWAP1 DIV PUSH20 0xFFFFFFFFFFFFFFFFFFFFFFFFFFFFFFFFFFFFFFFF AND PUSH20 0xFFFFFFFFFFFFFFFFFFFFFFFFFFFFFFFFFFFFFFFF AND PUSH2 0x8FC DUP3 SWAP1 DUP2 ISZERO MUL SWAP1 PUSH1 0x40 MLOAD PUSH1 0x0 PUSH1 0x40 MLOAD DUP1 DUP4 SUB DUP2 DUP6 DUP9 DUP9 CALL SWAP4 POP POP POP POP ISZERO DUP1 ISZERO PUSH2 0x7F5 JUMPI RETURNDATASIZE PUSH1 0x0 DUP1 RETURNDATACOPY RETURNDATASIZE PUSH1 0x0 REVERT JUMPDEST POP PUSH1 0x3 PUSH1 0x0 SWAP1 SLOAD SWAP1 PUSH2 0x100 EXP SWAP1 DIV PUSH20 0xFFFFFFFFFFFFFFFFFFFFFFFFFFFFFFFFFFFFFFFF AND PUSH20 0xFFFFFFFFFFFFFFFFFFFFFFFFFFFFFFFFFFFFFFFF AND PUSH2 0x8FC DUP3 SWAP1 DUP2 ISZERO MUL SWAP1 PUSH1 0x40 MLOAD PUSH1 0x0 PUSH1 0x40 MLOAD DUP1 DUP4 SUB DUP2 DUP6 DUP9 DUP9 CALL SWAP4 POP POP POP POP ISZERO DUP1 ISZERO PUSH2 0x85E JUMPI RETURNDATASIZE PUSH1 0x0 DUP1 RETURNDATACOPY RETURNDATASIZE PUSH1 0x0 REVERT JUMPDEST POP PUSH2 0x8B9 JUMP JUMPDEST PUSH1 0x4 SLOAD SWAP1 POP PUSH1 0x0 PUSH1 0x4 DUP2 SWAP1 SSTORE POP CALLER PUSH20 0xFFFFFFFFFFFFFFFFFFFFFFFFFFFFFFFFFFFFFFFF AND PUSH2 0x8FC DUP3 SWAP1 DUP2 ISZERO MUL SWAP1 PUSH1 0x40 MLOAD PUSH1 0x0 PUSH1 0x40 MLOAD DUP1 DUP4 SUB DUP2 DUP6 DUP9 DUP9 CALL SWAP4 POP POP POP POP ISZERO DUP1 ISZERO PUSH2 0x8B7 JUMPI RETURNDATASIZE PUSH1 0x0 DUP1 RETURNDATACOPY RETURNDATASIZE PUSH1 0x0 REVERT JUMPDEST POP JUMPDEST PUSH32 0x2BA2169CD2502A6CC4FD55F87F2DCBCEEF588B593AA4FDC883D4FC62E65ED6A9 PUSH1 0x4 SLOAD PUSH1 0x40 MLOAD PUSH2 0x8EA SWAP2 SWAP1 PUSH2 0x1504 JUMP JUMPDEST PUSH1 0x40 MLOAD DUP1 SWAP2 SUB SWAP1 LOG1 POP JUMP JUMPDEST PUSH1 0x0 PUSH1 0x3 PUSH1 0x0 SWAP1 SLOAD SWAP1 PUSH2 0x100 EXP SWAP1 DIV PUSH20 0xFFFFFFFFFFFFFFFFFFFFFFFFFFFFFFFFFFFFFFFF AND SWAP1 POP SWAP1 JUMP JUMPDEST PUSH1 0x0 PUSH1 0x5 DUP2 GT ISZERO PUSH2 0x933 JUMPI PUSH2 0x932 PUSH2 0x15F3 JUMP JUMPDEST JUMPDEST PUSH1 0x0 DUP1 SLOAD SWAP1 PUSH2 0x100 EXP SWAP1 DIV PUSH1 0xFF AND PUSH1 0x5 DUP2 GT ISZERO PUSH2 0x953 JUMPI PUSH2 0x952 PUSH2 0x15F3 JUMP JUMPDEST JUMPDEST EQ PUSH2 0x993 JUMPI PUSH1 0x40 MLOAD PUSH32 0x8C379A000000000000000000000000000000000000000000000000000000000 DUP2 MSTORE PUSH1 0x4 ADD PUSH2 0x98A SWAP1 PUSH2 0x2673 JUMP JUMPDEST PUSH1 0x40 MLOAD DUP1 SWAP2 SUB SWAP1 REVERT JUMPDEST CALLER PUSH20 0xFFFFFFFFFFFFFFFFFFFFFFFFFFFFFFFFFFFFFFFF AND PUSH1 0x2 PUSH1 0x0 SWAP1 SLOAD SWAP1 PUSH2 0x100 EXP SWAP1 DIV PUSH20 0xFFFFFFFFFFFFFFFFFFFFFFFFFFFFFFFFFFFFFFFF AND PUSH20 0xFFFFFFFFFFFFFFFFFFFFFFFFFFFFFFFFFFFFFFFF AND SUB PUSH2 0xA23 JUMPI PUSH1 0x40 MLOAD PUSH32 0x8C379A000000000000000000000000000000000000000000000000000000000 DUP2 MSTORE PUSH1 0x4 ADD PUSH2 0xA1A SWAP1 PUSH2 0x26DF JUMP JUMPDEST PUSH1 0x40 MLOAD DUP1 SWAP2 SUB SWAP1 REVERT JUMPDEST PUSH7 0x38D7EA4C68000 CALLVALUE LT ISZERO PUSH2 0xA6D JUMPI PUSH1 0x40 MLOAD PUSH32 0x8C379A000000000000000000000000000000000000000000000000000000000 DUP2 MSTORE PUSH1 0x4 ADD PUSH2 0xA64 SWAP1 PUSH2 0x274B JUMP JUMPDEST PUSH1 0x40 MLOAD DUP1 SWAP2 SUB SWAP1 REVERT JUMPDEST PUSH1 0x0 PUSH20 0xFFFFFFFFFFFFFFFFFFFFFFFFFFFFFFFFFFFFFFFF AND PUSH1 0x2 PUSH1 0x0 SWAP1 SLOAD SWAP1 PUSH2 0x100 EXP SWAP1 DIV PUSH20 0xFFFFFFFFFFFFFFFFFFFFFFFFFFFFFFFFFFFFFFFF AND PUSH20 0xFFFFFFFFFFFFFFFFFFFFFFFFFFFFFFFFFFFFFFFF AND SUB PUSH2 0xB09 JUMPI CALLER PUSH1 0x2 PUSH1 0x0 PUSH2 0x100 EXP DUP2 SLOAD DUP2 PUSH20 0xFFFFFFFFFFFFFFFFFFFFFFFFFFFFFFFFFFFFFFFF MUL NOT AND SWAP1 DUP4 PUSH20 0xFFFFFFFFFFFFFFFFFFFFFFFFFFFFFFFFFFFFFFFF AND MUL OR SWAP1 SSTORE POP PUSH2 0xB75 JUMP JUMPDEST CALLER PUSH1 0x3 PUSH1 0x0 PUSH2 0x100 EXP DUP2 SLOAD DUP2 PUSH20 0xFFFFFFFFFFFFFFFFFFFFFFFFFFFFFFFFFFFFFFFF MUL NOT AND SWAP1 DUP4 PUSH20 0xFFFFFFFFFFFFFFFFFFFFFFFFFFFFFFFFFFFFFFFF AND MUL OR SWAP1 SSTORE POP PUSH1 0x1 PUSH1 0x0 DUP1 PUSH2 0x100 EXP DUP2 SLOAD DUP2 PUSH1 0xFF MUL NOT AND SWAP1 DUP4 PUSH1 0x5 DUP2 GT ISZERO PUSH2 0xB6F JUMPI PUSH2 0xB6E PUSH2 0x15F3 JUMP JUMPDEST JUMPDEST MUL OR SWAP1 SSTORE POP JUMPDEST CALLVALUE PUSH1 0x4 PUSH1 0x0 DUP3 DUP3 SLOAD PUSH2 0xB87 SWAP2 SWAP1 PUSH2 0x276B JUMP JUMPDEST SWAP3 POP POP DUP2 SWAP1 SSTORE POP PUSH32 0x686F48077F0E1C8FDD28428AD5AF155405D457FF04DFEFD482BBE683D53E42D3 PUSH1 0x0 DUP1 SLOAD SWAP1 PUSH2 0x100 EXP SWAP1 DIV PUSH1 0xFF AND PUSH1 0x1 PUSH1 0x40 MLOAD PUSH2 0xBCD SWAP3 SWAP2 SWAP1 PUSH2 0x245F JUMP JUMPDEST PUSH1 0x40 MLOAD DUP1 SWAP2 SUB SWAP1 LOG1 PUSH32 0x2BA2169CD2502A6CC4FD55F87F2DCBCEEF588B593AA4FDC883D4FC62E65ED6A9 PUSH1 0x4 SLOAD PUSH1 0x40 MLOAD PUSH2 0xC06 SWAP2 SWAP1 PUSH2 0x1504 JUMP JUMPDEST PUSH1 0x40 MLOAD DUP1 SWAP2 SUB SWAP1 LOG1 JUMP JUMPDEST PUSH1 0x0 PUSH1 0x2 PUSH1 0x0 SWAP1 SLOAD SWAP1 PUSH2 0x100 EXP SWAP1 DIV PUSH20 0xFFFFFFFFFFFFFFFFFFFFFFFFFFFFFFFFFFFFFFFF AND SWAP1 POP SWAP1 JUMP JUMPDEST PUSH1 0x1 PUSH1 0x5 DUP2 GT ISZERO PUSH2 0xC4E JUMPI PUSH2 0xC4D PUSH2 0x15F3 JUMP JUMPDEST JUMPDEST PUSH1 0x0 DUP1 SLOAD SWAP1 PUSH2 0x100 EXP SWAP1 DIV PUSH1 0xFF AND PUSH1 0x5 DUP2 GT ISZERO PUSH2 0xC6E JUMPI PUSH2 0xC6D PUSH2 0x15F3 JUMP JUMPDEST JUMPDEST EQ DUP1 ISZERO PUSH2 0xCC8 JUMPI POP PUSH1 0x2 PUSH1 0x0 SWAP1 SLOAD SWAP1 PUSH2 0x100 EXP SWAP1 DIV PUSH20 0xFFFFFFFFFFFFFFFFFFFFFFFFFFFFFFFFFFFFFFFF AND PUSH20 0xFFFFFFFFFFFFFFFFFFFFFFFFFFFFFFFFFFFFFFFF AND CALLER PUSH20 0xFFFFFFFFFFFFFFFFFFFFFFFFFFFFFFFFFFFFFFFF AND EQ JUMPDEST DUP1 PUSH2 0xD5D JUMPI POP PUSH1 0x2 PUSH1 0x5 DUP2 GT ISZERO PUSH2 0xCE2 JUMPI PUSH2 0xCE1 PUSH2 0x15F3 JUMP JUMPDEST JUMPDEST PUSH1 0x0 DUP1 SLOAD SWAP1 PUSH2 0x100 EXP SWAP1 DIV PUSH1 0xFF AND PUSH1 0x5 DUP2 GT ISZERO PUSH2 0xD02 JUMPI PUSH2 0xD01 PUSH2 0x15F3 JUMP JUMPDEST JUMPDEST EQ DUP1 ISZERO PUSH2 0xD5C JUMPI POP PUSH1 0x3 PUSH1 0x0 SWAP1 SLOAD SWAP1 PUSH2 0x100 EXP SWAP1 DIV PUSH20 0xFFFFFFFFFFFFFFFFFFFFFFFFFFFFFFFFFFFFFFFF AND PUSH20 0xFFFFFFFFFFFFFFFFFFFFFFFFFFFFFFFFFFFFFFFF AND CALLER PUSH20 0xFFFFFFFFFFFFFFFFFFFFFFFFFFFFFFFFFFFFFFFF AND EQ JUMPDEST JUMPDEST PUSH2 0xD9C JUMPI PUSH1 0x40 MLOAD PUSH32 0x8C379A000000000000000000000000000000000000000000000000000000000 DUP2 MSTORE PUSH1 0x4 ADD PUSH2 0xD93 SWAP1 PUSH2 0x27EB JUMP JUMPDEST PUSH1 0x40 MLOAD DUP1 SWAP2 SUB SWAP1 REVERT JUMPDEST PUSH1 0x9 DUP2 PUSH1 0xFF AND LT PUSH2 0xDE2 JUMPI PUSH1 0x40 MLOAD PUSH32 0x8C379A000000000000000000000000000000000000000000000000000000000 DUP2 MSTORE PUSH1 0x4 ADD PUSH2 0xDD9 SWAP1 PUSH2 0x2857 JUMP JUMPDEST PUSH1 0x40 MLOAD DUP1 SWAP2 SUB SWAP1 REVERT JUMPDEST PUSH1 0x0 PUSH1 0x1 DUP3 PUSH1 0xFF AND PUSH1 0x9 DUP2 LT PUSH2 0xDFB JUMPI PUSH2 0xDFA PUSH2 0x2877 JUMP JUMPDEST JUMPDEST PUSH1 0x20 SWAP2 DUP3 DUP3 DIV ADD SWAP2 SWAP1 MOD SWAP1 SLOAD SWAP1 PUSH2 0x100 EXP SWAP1 DIV PUSH1 0xFF AND PUSH1 0xFF AND EQ PUSH2 0xE54 JUMPI PUSH1 0x40 MLOAD PUSH32 0x8C379A000000000000000000000000000000000000000000000000000000000 DUP2 MSTORE PUSH1 0x4 ADD PUSH2 0xE4B SWAP1 PUSH2 0x28F2 JUMP JUMPDEST PUSH1 0x40 MLOAD DUP1 SWAP2 SUB SWAP1 REVERT JUMPDEST PUSH1 0x1 PUSH1 0x5 DUP2 GT ISZERO PUSH2 0xE68 JUMPI PUSH2 0xE67 PUSH2 0x15F3 JUMP JUMPDEST JUMPDEST PUSH1 0x0 DUP1 SLOAD SWAP1 PUSH2 0x100 EXP SWAP1 DIV PUSH1 0xFF AND PUSH1 0x5 DUP2 GT ISZERO PUSH2 0xE88 JUMPI PUSH2 0xE87 PUSH2 0x15F3 JUMP JUMPDEST JUMPDEST EQ PUSH2 0xE94 JUMPI PUSH1 0x2 PUSH2 0xE97 JUMP JUMPDEST PUSH1 0x1 JUMPDEST PUSH1 0x1 DUP3 PUSH1 0xFF AND PUSH1 0x9 DUP2 LT PUSH2 0xEAE JUMPI PUSH2 0xEAD PUSH2 0x2877 JUMP JUMPDEST JUMPDEST PUSH1 0x20 SWAP2 DUP3 DUP3 DIV ADD SWAP2 SWAP1 MOD PUSH2 0x100 EXP DUP2 SLOAD DUP2 PUSH1 0xFF MUL NOT AND SWAP1 DUP4 PUSH1 0xFF AND MUL OR SWAP1 SSTORE POP PUSH2 0xED6 PUSH2 0xED9 JUMP JUMPDEST POP JUMP JUMPDEST PUSH1 0x0 PUSH2 0xEE3 PUSH2 0x1025 JUMP JUMPDEST SWAP1 POP PUSH1 0x0 DUP2 PUSH1 0xFF AND EQ PUSH2 0xF32 JUMPI PUSH1 0x1 DUP2 PUSH1 0xFF AND EQ PUSH2 0xF02 JUMPI PUSH1 0x4 PUSH2 0xF05 JUMP JUMPDEST PUSH1 0x3 JUMPDEST PUSH1 0x0 DUP1 PUSH2 0x100 EXP DUP2 SLOAD DUP2 PUSH1 0xFF MUL NOT AND SWAP1 DUP4 PUSH1 0x5 DUP2 GT ISZERO PUSH2 0xF28 JUMPI PUSH2 0xF27 PUSH2 0x15F3 JUMP JUMPDEST JUMPDEST MUL OR SWAP1 SSTORE POP PUSH2 0xFDB JUMP JUMPDEST PUSH2 0xF3A PUSH2 0x13A6 JUMP JUMPDEST ISZERO PUSH2 0xF6E JUMPI PUSH1 0x5 PUSH1 0x0 DUP1 PUSH2 0x100 EXP DUP2 SLOAD DUP2 PUSH1 0xFF MUL NOT AND SWAP1 DUP4 PUSH1 0x5 DUP2 GT ISZERO PUSH2 0xF64 JUMPI PUSH2 0xF63 PUSH2 0x15F3 JUMP JUMPDEST JUMPDEST MUL OR SWAP1 SSTORE POP PUSH2 0xFDA JUMP JUMPDEST PUSH1 0x1 PUSH1 0x5 DUP2 GT ISZERO PUSH2 0xF82 JUMPI PUSH2 0xF81 PUSH2 0x15F3 JUMP JUMPDEST JUMPDEST PUSH1 0x0 DUP1 SLOAD SWAP1 PUSH2 0x100 EXP SWAP1 DIV PUSH1 0xFF AND PUSH1 0x5 DUP2 GT ISZERO PUSH2 0xFA2 JUMPI PUSH2 0xFA1 PUSH2 0x15F3 JUMP JUMPDEST JUMPDEST EQ PUSH2 0xFAE JUMPI PUSH1 0x1 PUSH2 0xFB1 JUMP JUMPDEST PUSH1 0x2 JUMPDEST PUSH1 0x0 DUP1 PUSH2 0x100 EXP DUP2 SLOAD DUP2 PUSH1 0xFF MUL NOT AND SWAP1 DUP4 PUSH1 0x5 DUP2 GT ISZERO PUSH2 0xFD4 JUMPI PUSH2 0xFD3 PUSH2 0x15F3 JUMP JUMPDEST JUMPDEST MUL OR SWAP1 SSTORE POP JUMPDEST JUMPDEST PUSH32 0x686F48077F0E1C8FDD28428AD5AF155405D457FF04DFEFD482BBE683D53E42D3 PUSH1 0x0 DUP1 SLOAD SWAP1 PUSH2 0x100 EXP SWAP1 DIV PUSH1 0xFF AND PUSH1 0x1 PUSH1 0x40 MLOAD PUSH2 0x101A SWAP3 SWAP2 SWAP1 PUSH2 0x245F JUMP JUMPDEST PUSH1 0x40 MLOAD DUP1 SWAP2 SUB SWAP1 LOG1 POP JUMP JUMPDEST PUSH1 0x0 DUP1 PUSH1 0x40 MLOAD DUP1 PUSH2 0x100 ADD PUSH1 0x40 MSTORE DUP1 PUSH1 0x40 MLOAD DUP1 PUSH1 0x60 ADD PUSH1 0x40 MSTORE DUP1 PUSH1 0x0 PUSH1 0xFF AND DUP2 MSTORE PUSH1 0x20 ADD PUSH1 0x1 PUSH1 0xFF AND DUP2 MSTORE PUSH1 0x20 ADD PUSH1 0x2 PUSH1 0xFF AND DUP2 MSTORE POP DUP2 MSTORE PUSH1 0x20 ADD PUSH1 0x40 MLOAD DUP1 PUSH1 0x60 ADD PUSH1 0x40 MSTORE DUP1 PUSH1 0x3 PUSH1 0xFF AND DUP2 MSTORE PUSH1 0x20 ADD PUSH1 0x4 PUSH1 0xFF AND DUP2 MSTORE PUSH1 0x20 ADD PUSH1 0x5 PUSH1 0xFF AND DUP2 MSTORE POP DUP2 MSTORE PUSH1 0x20 ADD PUSH1 0x40 MLOAD DUP1 PUSH1 0x60 ADD PUSH1 0x40 MSTORE DUP1 PUSH1 0x6 PUSH1 0xFF AND DUP2 MSTORE PUSH1 0x20 ADD PUSH1 0x7 PUSH1 0xFF AND DUP2 MSTORE PUSH1 0x20 ADD PUSH1 0x8 PUSH1 0xFF AND DUP2 MSTORE POP DUP2 MSTORE PUSH1 0x20 ADD PUSH1 0x40 MLOAD DUP1 PUSH1 0x60 ADD PUSH1 0x40 MSTORE DUP1 PUSH1 0x0 PUSH1 0xFF AND DUP2 MSTORE PUSH1 0x20 ADD PUSH1 0x3 PUSH1 0xFF AND DUP2 MSTORE PUSH1 0x20 ADD PUSH1 0x6 PUSH1 0xFF AND DUP2 MSTORE POP DUP2 MSTORE PUSH1 0x20 ADD PUSH1 0x40 MLOAD DUP1 PUSH1 0x60 ADD PUSH1 0x40 MSTORE DUP1 PUSH1 0x1 PUSH1 0xFF AND DUP2 MSTORE PUSH1 0x20 ADD PUSH1 0x4 PUSH1 0xFF AND DUP2 MSTORE PUSH1 0x20 ADD PUSH1 0x7 PUSH1 0xFF AND DUP2 MSTORE POP DUP2 MSTORE PUSH1 0x20 ADD PUSH1 0x40 MLOAD DUP1 PUSH1 0x60 ADD PUSH1 0x40 MSTORE DUP1 PUSH1 0x2 PUSH1 0xFF AND DUP2 MSTORE PUSH1 0x20 ADD PUSH1 0x5 PUSH1 0xFF AND DUP2 MSTORE PUSH1 0x20 ADD PUSH1 0x8 PUSH1 0xFF AND DUP2 MSTORE POP DUP2 MSTORE PUSH1 0x20 ADD PUSH1 0x40 MLOAD DUP1 PUSH1 0x60 ADD PUSH1 0x40 MSTORE DUP1 PUSH1 0x0 PUSH1 0xFF AND DUP2 MSTORE PUSH1 0x20 ADD PUSH1 0x4 PUSH1 0xFF AND DUP2 MSTORE PUSH1 0x20 ADD PUSH1 0x8 PUSH1 0xFF AND DUP2 MSTORE POP DUP2 MSTORE PUSH1 0x20 ADD PUSH1 0x40 MLOAD DUP1 PUSH1 0x60 ADD PUSH1 0x40 MSTORE DUP1 PUSH1 0x2 PUSH1 0xFF AND DUP2 MSTORE PUSH1 0x20 ADD PUSH1 0x4 PUSH1 0xFF AND DUP2 MSTORE PUSH1 0x20 ADD PUSH1 0x6 PUSH1 0xFF AND DUP2 MSTORE POP DUP2 MSTORE POP SWAP1 POP PUSH1 0x0 JUMPDEST PUSH1 0x8 DUP2 PUSH1 0xFF AND LT ISZERO PUSH2 0x139C JUMPI PUSH1 0x0 DUP3 DUP3 PUSH1 0xFF AND PUSH1 0x8 DUP2 LT PUSH2 0x11BB JUMPI PUSH2 0x11BA PUSH2 0x2877 JUMP JUMPDEST JUMPDEST PUSH1 0x20 MUL ADD MLOAD PUSH1 0x0 PUSH1 0x3 DUP2 LT PUSH2 0x11D3 JUMPI PUSH2 0x11D2 PUSH2 0x2877 JUMP JUMPDEST JUMPDEST PUSH1 0x20 MUL ADD MLOAD SWAP1 POP PUSH1 0x0 DUP4 DUP4 PUSH1 0xFF AND PUSH1 0x8 DUP2 LT PUSH2 0x11F2 JUMPI PUSH2 0x11F1 PUSH2 0x2877 JUMP JUMPDEST JUMPDEST PUSH1 0x20 MUL ADD MLOAD PUSH1 0x1 PUSH1 0x3 DUP2 LT PUSH2 0x120A JUMPI PUSH2 0x1209 PUSH2 0x2877 JUMP JUMPDEST JUMPDEST PUSH1 0x20 MUL ADD MLOAD SWAP1 POP PUSH1 0x0 DUP5 DUP5 PUSH1 0xFF AND PUSH1 0x8 DUP2 LT PUSH2 0x1229 JUMPI PUSH2 0x1228 PUSH2 0x2877 JUMP JUMPDEST JUMPDEST PUSH1 0x20 MUL ADD MLOAD PUSH1 0x2 PUSH1 0x3 DUP2 LT PUSH2 0x1241 JUMPI PUSH2 0x1240 PUSH2 0x2877 JUMP JUMPDEST JUMPDEST PUSH1 0x20 MUL ADD MLOAD SWAP1 POP PUSH1 0x0 PUSH1 0x1 DUP5 PUSH1 0xFF AND PUSH1 0x9 DUP2 LT PUSH2 0x1261 JUMPI PUSH2 0x1260 PUSH2 0x2877 JUMP JUMPDEST JUMPDEST PUSH1 0x20 SWAP2 DUP3 DUP3 DIV ADD SWAP2 SWAP1 MOD SWAP1 SLOAD SWAP1 PUSH2 0x100 EXP SWAP1 DIV PUSH1 0xFF AND PUSH1 0xFF AND EQ ISZERO DUP1 ISZERO PUSH2 0x12E5 JUMPI POP PUSH1 0x1 DUP3 PUSH1 0xFF AND PUSH1 0x9 DUP2 LT PUSH2 0x129A JUMPI PUSH2 0x1299 PUSH2 0x2877 JUMP JUMPDEST JUMPDEST PUSH1 0x20 SWAP2 DUP3 DUP3 DIV ADD SWAP2 SWAP1 MOD SWAP1 SLOAD SWAP1 PUSH2 0x100 EXP SWAP1 DIV PUSH1 0xFF AND PUSH1 0xFF AND PUSH1 0x1 DUP5 PUSH1 0xFF AND PUSH1 0x9 DUP2 LT PUSH2 0x12CA JUMPI PUSH2 0x12C9 PUSH2 0x2877 JUMP JUMPDEST JUMPDEST PUSH1 0x20 SWAP2 DUP3 DUP3 DIV ADD SWAP2 SWAP1 MOD SWAP1 SLOAD SWAP1 PUSH2 0x100 EXP SWAP1 DIV PUSH1 0xFF AND PUSH1 0xFF AND EQ JUMPDEST DUP1 ISZERO PUSH2 0x134E JUMPI POP PUSH1 0x1 DUP2 PUSH1 0xFF AND PUSH1 0x9 DUP2 LT PUSH2 0x1303 JUMPI PUSH2 0x1302 PUSH2 0x2877 JUMP JUMPDEST JUMPDEST PUSH1 0x20 SWAP2 DUP3 DUP3 DIV ADD SWAP2 SWAP1 MOD SWAP1 SLOAD SWAP1 PUSH2 0x100 EXP SWAP1 DIV PUSH1 0xFF AND PUSH1 0xFF AND PUSH1 0x1 DUP5 PUSH1 0xFF AND PUSH1 0x9 DUP2 LT PUSH2 0x1333 JUMPI PUSH2 0x1332 PUSH2 0x2877 JUMP JUMPDEST JUMPDEST PUSH1 0x20 SWAP2 DUP3 DUP3 DIV ADD SWAP2 SWAP1 MOD SWAP1 SLOAD SWAP1 PUSH2 0x100 EXP SWAP1 DIV PUSH1 0xFF AND PUSH1 0xFF AND EQ JUMPDEST ISZERO PUSH2 0x138C JUMPI PUSH1 0x1 DUP4 PUSH1 0xFF AND PUSH1 0x9 DUP2 LT PUSH2 0x136A JUMPI PUSH2 0x1369 PUSH2 0x2877 JUMP JUMPDEST JUMPDEST PUSH1 0x20 SWAP2 DUP3 DUP3 DIV ADD SWAP2 SWAP1 MOD SWAP1 SLOAD SWAP1 PUSH2 0x100 EXP SWAP1 DIV PUSH1 0xFF AND SWAP6 POP POP POP POP POP POP PUSH2 0x13A3 JUMP JUMPDEST POP POP POP DUP1 DUP1 PUSH1 0x1 ADD SWAP2 POP POP PUSH2 0x1197 JUMP JUMPDEST POP PUSH1 0x0 SWAP2 POP POP JUMPDEST SWAP1 JUMP JUMPDEST PUSH1 0x0 DUP1 PUSH1 0x0 SWAP1 POP JUMPDEST PUSH1 0x9 DUP2 PUSH1 0xFF AND LT ISZERO PUSH2 0x1408 JUMPI PUSH1 0x0 PUSH1 0x1 DUP3 PUSH1 0xFF AND PUSH1 0x9 DUP2 LT PUSH2 0x13D3 JUMPI PUSH2 0x13D2 PUSH2 0x2877 JUMP JUMPDEST JUMPDEST PUSH1 0x20 SWAP2 DUP3 DUP3 DIV ADD SWAP2 SWAP1 MOD SWAP1 SLOAD SWAP1 PUSH2 0x100 EXP SWAP1 DIV PUSH1 0xFF AND PUSH1 0xFF AND SUB PUSH2 0x13FB JUMPI PUSH1 0x0 SWAP2 POP POP PUSH2 0x140E JUMP JUMPDEST DUP1 DUP1 PUSH1 0x1 ADD SWAP2 POP POP PUSH2 0x13AE JUMP JUMPDEST POP PUSH1 0x1 SWAP1 POP JUMPDEST SWAP1 JUMP JUMPDEST PUSH1 0x40 MLOAD DUP1 PUSH2 0x120 ADD PUSH1 0x40 MSTORE DUP1 PUSH1 0x9 SWAP1 PUSH1 0x20 DUP3 MUL DUP1 CALLDATASIZE DUP4 CALLDATACOPY DUP1 DUP3 ADD SWAP2 POP POP SWAP1 POP POP SWAP1 JUMP JUMPDEST DUP3 PUSH1 0x9 PUSH1 0x1F ADD PUSH1 0x20 SWAP1 DIV DUP2 ADD SWAP3 DUP3 ISZERO PUSH2 0x14BD JUMPI SWAP2 PUSH1 0x20 MUL DUP3 ADD PUSH1 0x0 JUMPDEST DUP4 DUP3 GT ISZERO PUSH2 0x148E JUMPI DUP4 MLOAD DUP4 DUP3 PUSH2 0x100 EXP DUP2 SLOAD DUP2 PUSH1 0xFF MUL NOT AND SWAP1 DUP4 PUSH1 0xFF AND MUL OR SWAP1 SSTORE POP SWAP3 PUSH1 0x20 ADD SWAP3 PUSH1 0x1 ADD PUSH1 0x20 DUP2 PUSH1 0x0 ADD DIV SWAP3 DUP4 ADD SWAP3 PUSH1 0x1 SUB MUL PUSH2 0x1450 JUMP JUMPDEST DUP1 ISZERO PUSH2 0x14BB JUMPI DUP3 DUP2 PUSH2 0x100 EXP DUP2 SLOAD SWAP1 PUSH1 0xFF MUL NOT AND SWAP1 SSTORE PUSH1 0x1 ADD PUSH1 0x20 DUP2 PUSH1 0x0 ADD DIV SWAP3 DUP4 ADD SWAP3 PUSH1 0x1 SUB MUL PUSH2 0x148E JUMP JUMPDEST POP JUMPDEST POP SWAP1 POP PUSH2 0x14CA SWAP2 SWAP1 PUSH2 0x14CE JUMP JUMPDEST POP SWAP1 JUMP JUMPDEST JUMPDEST DUP1 DUP3 GT ISZERO PUSH2 0x14E7 JUMPI PUSH1 0x0 DUP2 PUSH1 0x0 SWAP1 SSTORE POP PUSH1 0x1 ADD PUSH2 0x14CF JUMP JUMPDEST POP SWAP1 JUMP JUMPDEST PUSH1 0x0 DUP2 SWAP1 POP SWAP2 SWAP1 POP JUMP JUMPDEST PUSH2 0x14FE DUP2 PUSH2 0x14EB JUMP JUMPDEST DUP3 MSTORE POP POP JUMP JUMPDEST PUSH1 0x0 PUSH1 0x20 DUP3 ADD SWAP1 POP PUSH2 0x1519 PUSH1 0x0 DUP4 ADD DUP5 PUSH2 0x14F5 JUMP JUMPDEST SWAP3 SWAP2 POP POP JUMP JUMPDEST PUSH1 0x0 PUSH1 0x9 SWAP1 POP SWAP2 SWAP1 POP JUMP JUMPDEST PUSH1 0x0 DUP2 SWAP1 POP SWAP3 SWAP2 POP POP JUMP JUMPDEST PUSH1 0x0 DUP2 SWAP1 POP SWAP2 SWAP1 POP JUMP JUMPDEST PUSH1 0x0 PUSH1 0xFF DUP3 AND SWAP1 POP SWAP2 SWAP1 POP JUMP JUMPDEST PUSH2 0x1555 DUP2 PUSH2 0x153F JUMP JUMPDEST DUP3 MSTORE POP POP JUMP JUMPDEST PUSH1 0x0 PUSH2 0x1567 DUP4 DUP4 PUSH2 0x154C JUMP JUMPDEST PUSH1 0x20 DUP4 ADD SWAP1 POP SWAP3 SWAP2 POP POP JUMP JUMPDEST PUSH1 0x0 PUSH1 0x20 DUP3 ADD SWAP1 POP SWAP2 SWAP1 POP JUMP JUMPDEST PUSH2 0x1589 DUP2 PUSH2 0x151F JUMP JUMPDEST PUSH2 0x1593 DUP2 DUP5 PUSH2 0x152A JUMP JUMPDEST SWAP3 POP PUSH2 0x159E DUP3 PUSH2 0x1535 JUMP JUMPDEST DUP1 PUSH1 0x0 JUMPDEST DUP4 DUP2 LT ISZERO PUSH2 0x15CF JUMPI DUP2 MLOAD PUSH2 0x15B6 DUP8 DUP3 PUSH2 0x155B JUMP JUMPDEST SWAP7 POP PUSH2 0x15C1 DUP4 PUSH2 0x1573 JUMP JUMPDEST SWAP3 POP POP PUSH1 0x1 DUP2 ADD SWAP1 POP PUSH2 0x15A2 JUMP JUMPDEST POP POP POP POP POP POP JUMP JUMPDEST PUSH1 0x0 PUSH2 0x120 DUP3 ADD SWAP1 POP PUSH2 0x15ED PUSH1 0x0 DUP4 ADD DUP5 PUSH2 0x1580 JUMP JUMPDEST SWAP3 SWAP2 POP POP JUMP JUMPDEST PUSH32 0x4E487B7100000000000000000000000000000000000000000000000000000000 PUSH1 0x0 MSTORE PUSH1 0x21 PUSH1 0x4 MSTORE PUSH1 0x24 PUSH1 0x0 REVERT JUMPDEST PUSH1 0x6 DUP2 LT PUSH2 0x1633 JUMPI PUSH2 0x1632 PUSH2 0x15F3 JUMP JUMPDEST JUMPDEST POP JUMP JUMPDEST PUSH1 0x0 DUP2 SWAP1 POP PUSH2 0x1644 DUP3 PUSH2 0x1622 JUMP JUMPDEST SWAP2 SWAP1 POP JUMP JUMPDEST PUSH1 0x0 PUSH2 0x1654 DUP3 PUSH2 0x1636 JUMP JUMPDEST SWAP1 POP SWAP2 SWAP1 POP JUMP JUMPDEST PUSH2 0x1664 DUP2 PUSH2 0x1649 JUMP JUMPDEST DUP3 MSTORE POP POP JUMP JUMPDEST PUSH1 0x0 PUSH1 0x20 DUP3 ADD SWAP1 POP PUSH2 0x167F PUSH1 0x0 DUP4 ADD DUP5 PUSH2 0x165B JUMP JUMPDEST SWAP3 SWAP2 POP POP JUMP JUMPDEST PUSH1 0x0 PUSH20 0xFFFFFFFFFFFFFFFFFFFFFFFFFFFFFFFFFFFFFFFF DUP3 AND SWAP1 POP SWAP2 SWAP1 POP JUMP JUMPDEST PUSH1 0x0 PUSH2 0x16B0 DUP3 PUSH2 0x1685 JUMP JUMPDEST SWAP1 POP SWAP2 SWAP1 POP JUMP JUMPDEST PUSH2 0x16C0 DUP2 PUSH2 0x16A5 JUMP JUMPDEST DUP3 MSTORE POP POP JUMP JUMPDEST PUSH1 0x0 PUSH1 0x20 DUP3 ADD SWAP1 POP PUSH2 0x16DB PUSH1 0x0 DUP4 ADD DUP5 PUSH2 0x16B7 JUMP JUMPDEST SWAP3 SWAP2 POP POP JUMP JUMPDEST PUSH1 0x0 DUP1 REVERT JUMPDEST PUSH2 0x16EF DUP2 PUSH2 0x153F JUMP JUMPDEST DUP2 EQ PUSH2 0x16FA JUMPI PUSH1 0x0 DUP1 REVERT JUMPDEST POP JUMP JUMPDEST PUSH1 0x0 DUP2 CALLDATALOAD SWAP1 POP PUSH2 0x170C DUP2 PUSH2 0x16E6 JUMP JUMPDEST SWAP3 SWAP2 POP POP JUMP JUMPDEST PUSH1 0x0 PUSH1 0x20 DUP3 DUP5 SUB SLT ISZERO PUSH2 0x1728 JUMPI PUSH2 0x1727 PUSH2 0x16E1 JUMP JUMPDEST JUMPDEST PUSH1 0x0 PUSH2 0x1736 DUP5 DUP3 DUP6 ADD PUSH2 0x16FD JUMP JUMPDEST SWAP2 POP POP SWAP3 SWAP2 POP POP JUMP JUMPDEST PUSH1 0x0 PUSH1 0x9 SWAP1 POP SWAP2 SWAP1 POP JUMP JUMPDEST PUSH1 0x0 DUP2 SWAP1 POP SWAP2 SWAP1 POP JUMP JUMPDEST PUSH1 0x0 DUP2 PUSH1 0x0 SHR SWAP1 POP SWAP2 SWAP1 POP JUMP JUMPDEST PUSH1 0x0 PUSH1 0xFF DUP3 AND SWAP1 POP SWAP2 SWAP1 POP JUMP JUMPDEST PUSH1 0x0 PUSH2 0x1781 PUSH2 0x177C DUP4 PUSH2 0x1754 JUMP JUMPDEST PUSH2 0x1761 JUMP JUMPDEST SWAP1 POP SWAP2 SWAP1 POP JUMP JUMPDEST PUSH1 0x0 DUP2 PUSH1 0x8 SHR SWAP1 POP SWAP2 SWAP1 POP JUMP JUMPDEST PUSH1 0x0 PUSH2 0x17A8 PUSH2 0x17A3 DUP4 PUSH2 0x1788 JUMP JUMPDEST PUSH2 0x1761 JUMP JUMPDEST SWAP1 POP SWAP2 SWAP1 POP JUMP JUMPDEST PUSH1 0x0 DUP2 PUSH1 0x10 SHR SWAP1 POP SWAP2 SWAP1 POP JUMP JUMPDEST PUSH1 0x0 PUSH2 0x17CF PUSH2 0x17CA DUP4 PUSH2 0x17AF JUMP JUMPDEST PUSH2 0x1761 JUMP JUMPDEST SWAP1 POP SWAP2 SWAP1 POP JUMP JUMPDEST PUSH1 0x0 DUP2 PUSH1 0x18 SHR SWAP1 POP SWAP2 SWAP1 POP JUMP JUMPDEST PUSH1 0x0 PUSH2 0x17F6 PUSH2 0x17F1 DUP4 PUSH2 0x17D6 JUMP JUMPDEST PUSH2 0x1761 JUMP JUMPDEST SWAP1 POP SWAP2 SWAP1 POP JUMP JUMPDEST PUSH1 0x0 DUP2 PUSH1 0x20 SHR SWAP1 POP SWAP2 SWAP1 POP JUMP JUMPDEST PUSH1 0x0 PUSH2 0x181D PUSH2 0x1818 DUP4 PUSH2 0x17FD JUMP JUMPDEST PUSH2 0x1761 JUMP JUMPDEST SWAP1 POP SWAP2 SWAP1 POP JUMP JUMPDEST PUSH1 0x0 DUP2 PUSH1 0x28 SHR SWAP1 POP SWAP2 SWAP1 POP JUMP JUMPDEST PUSH1 0x0 PUSH2 0x1844 PUSH2 0x183F DUP4 PUSH2 0x1824 JUMP JUMPDEST PUSH2 0x1761 JUMP JUMPDEST SWAP1 POP SWAP2 SWAP1 POP JUMP JUMPDEST PUSH1 0x0 DUP2 PUSH1 0x30 SHR SWAP1 POP SWAP2 SWAP1 POP JUMP JUMPDEST PUSH1 0x0 PUSH2 0x186B PUSH2 0x1866 DUP4 PUSH2 0x184B JUMP JUMPDEST PUSH2 0x1761 JUMP JUMPDEST SWAP1 POP SWAP2 SWAP1 POP JUMP JUMPDEST PUSH1 0x0 DUP2 PUSH1 0x38 SHR SWAP1 POP SWAP2 SWAP1 POP JUMP JUMPDEST PUSH1 0x0 PUSH2 0x1892 PUSH2 0x188D DUP4 PUSH2 0x1872 JUMP JUMPDEST PUSH2 0x1761 JUMP JUMPDEST SWAP1 POP SWAP2 SWAP1 POP JUMP JUMPDEST PUSH1 0x0 DUP2 PUSH1 0x40 SHR SWAP1 POP SWAP2 SWAP1 POP JUMP JUMPDEST PUSH1 0x0 PUSH2 0x18B9 PUSH2 0x18B4 DUP4 PUSH2 0x1899 JUMP JUMPDEST PUSH2 0x1761 JUMP JUMPDEST SWAP1 POP SWAP2 SWAP1 POP JUMP JUMPDEST PUSH1 0x0 DUP2 PUSH1 0x48 SHR SWAP1 POP SWAP2 SWAP1 POP JUMP JUMPDEST PUSH1 0x0 PUSH2 0x18E0 PUSH2 0x18DB DUP4 PUSH2 0x18C0 JUMP JUMPDEST PUSH2 0x1761 JUMP JUMPDEST SWAP1 POP SWAP2 SWAP1 POP JUMP JUMPDEST PUSH1 0x0 DUP2 PUSH1 0x50 SHR SWAP1 POP SWAP2 SWAP1 POP JUMP JUMPDEST PUSH1 0x0 PUSH2 0x1907 PUSH2 0x1902 DUP4 PUSH2 0x18E7 JUMP JUMPDEST PUSH2 0x1761 JUMP JUMPDEST SWAP1 POP SWAP2 SWAP1 POP JUMP JUMPDEST PUSH1 0x0 DUP2 PUSH1 0x58 SHR SWAP1 POP SWAP2 SWAP1 POP JUMP JUMPDEST PUSH1 0x0 PUSH2 0x192E PUSH2 0x1929 DUP4 PUSH2 0x190E JUMP JUMPDEST PUSH2 0x1761 JUMP JUMPDEST SWAP1 POP SWAP2 SWAP1 POP JUMP JUMPDEST PUSH1 0x0 DUP2 PUSH1 0x60 SHR SWAP1 POP SWAP2 SWAP1 POP JUMP JUMPDEST PUSH1 0x0 PUSH2 0x1955 PUSH2 0x1950 DUP4 PUSH2 0x1935 JUMP JUMPDEST PUSH2 0x1761 JUMP JUMPDEST SWAP1 POP SWAP2 SWAP1 POP JUMP JUMPDEST PUSH1 0x0 DUP2 PUSH1 0x68 SHR SWAP1 POP SWAP2 SWAP1 POP JUMP JUMPDEST PUSH1 0x0 PUSH2 0x197C PUSH2 0x1977 DUP4 PUSH2 0x195C JUMP JUMPDEST PUSH2 0x1761 JUMP JUMPDEST SWAP1 POP SWAP2 SWAP1 POP JUMP JUMPDEST PUSH1 0x0 DUP2 PUSH1 0x70 SHR SWAP1 POP SWAP2 SWAP1 POP JUMP JUMPDEST PUSH1 0x0 PUSH2 0x19A3 PUSH2 0x199E DUP4 PUSH2 0x1983 JUMP JUMPDEST PUSH2 0x1761 JUMP JUMPDEST SWAP1 POP SWAP2 SWAP1 POP JUMP JUMPDEST PUSH1 0x0 DUP2 PUSH1 0x78 SHR SWAP1 POP SWAP2 SWAP1 POP JUMP JUMPDEST PUSH1 0x0 PUSH2 0x19CA PUSH2 0x19C5 DUP4 PUSH2 0x19AA JUMP JUMPDEST PUSH2 0x1761 JUMP JUMPDEST SWAP1 POP SWAP2 SWAP1 POP JUMP JUMPDEST PUSH1 0x0 DUP2 PUSH1 0x80 SHR SWAP1 POP SWAP2 SWAP1 POP JUMP JUMPDEST PUSH1 0x0 PUSH2 0x19F1 PUSH2 0x19EC DUP4 PUSH2 0x19D1 JUMP JUMPDEST PUSH2 0x1761 JUMP JUMPDEST SWAP1 POP SWAP2 SWAP1 POP JUMP JUMPDEST PUSH1 0x0 DUP2 PUSH1 0x88 SHR SWAP1 POP SWAP2 SWAP1 POP JUMP JUMPDEST PUSH1 0x0 PUSH2 0x1A18 PUSH2 0x1A13 DUP4 PUSH2 0x19F8 JUMP JUMPDEST PUSH2 0x1761 JUMP JUMPDEST SWAP1 POP SWAP2 SWAP1 POP JUMP JUMPDEST PUSH1 0x0 DUP2 PUSH1 0x90 SHR SWAP1 POP SWAP2 SWAP1 POP JUMP JUMPDEST PUSH1 0x0 PUSH2 0x1A3F PUSH2 0x1A3A DUP4 PUSH2 0x1A1F JUMP JUMPDEST PUSH2 0x1761 JUMP JUMPDEST SWAP1 POP SWAP2 SWAP1 POP JUMP JUMPDEST PUSH1 0x0 DUP2 PUSH1 0x98 SHR SWAP1 POP SWAP2 SWAP1 POP JUMP JUMPDEST PUSH1 0x0 PUSH2 0x1A66 PUSH2 0x1A61 DUP4 PUSH2 0x1A46 JUMP JUMPDEST PUSH2 0x1761 JUMP JUMPDEST SWAP1 POP SWAP2 SWAP1 POP JUMP JUMPDEST PUSH1 0x0 DUP2 PUSH1 0xA0 SHR SWAP1 POP SWAP2 SWAP1 POP JUMP JUMPDEST PUSH1 0x0 PUSH2 0x1A8D PUSH2 0x1A88 DUP4 PUSH2 0x1A6D JUMP JUMPDEST PUSH2 0x1761 JUMP JUMPDEST SWAP1 POP SWAP2 SWAP1 POP JUMP JUMPDEST PUSH1 0x0 DUP2 PUSH1 0xA8 SHR SWAP1 POP SWAP2 SWAP1 POP JUMP JUMPDEST PUSH1 0x0 PUSH2 0x1AB4 PUSH2 0x1AAF DUP4 PUSH2 0x1A94 JUMP JUMPDEST PUSH2 0x1761 JUMP JUMPDEST SWAP1 POP SWAP2 SWAP1 POP JUMP JUMPDEST PUSH1 0x0 DUP2 PUSH1 0xB0 SHR SWAP1 POP SWAP2 SWAP1 POP JUMP JUMPDEST PUSH1 0x0 PUSH2 0x1ADB PUSH2 0x1AD6 DUP4 PUSH2 0x1ABB JUMP JUMPDEST PUSH2 0x1761 JUMP JUMPDEST SWAP1 POP SWAP2 SWAP1 POP JUMP JUMPDEST PUSH1 0x0 DUP2 PUSH1 0xB8 SHR SWAP1 POP SWAP2 SWAP1 POP JUMP JUMPDEST PUSH1 0x0 PUSH2 0x1B02 PUSH2 0x1AFD DUP4 PUSH2 0x1AE2 JUMP JUMPDEST PUSH2 0x1761 JUMP JUMPDEST SWAP1 POP SWAP2 SWAP1 POP JUMP JUMPDEST PUSH1 0x0 DUP2 PUSH1 0xC0 SHR SWAP1 POP SWAP2 SWAP1 POP JUMP JUMPDEST PUSH1 0x0 PUSH2 0x1B29 PUSH2 0x1B24 DUP4 PUSH2 0x1B09 JUMP JUMPDEST PUSH2 0x1761 JUMP JUMPDEST SWAP1 POP SWAP2 SWAP1 POP JUMP JUMPDEST PUSH1 0x0 DUP2 PUSH1 0xC8 SHR SWAP1 POP SWAP2 SWAP1 POP JUMP JUMPDEST PUSH1 0x0 PUSH2 0x1B50 PUSH2 0x1B4B DUP4 PUSH2 0x1B30 JUMP JUMPDEST PUSH2 0x1761 JUMP JUMPDEST SWAP1 POP SWAP2 SWAP1 POP JUMP JUMPDEST PUSH1 0x0 DUP2 PUSH1 0xD0 SHR SWAP1 POP SWAP2 SWAP1 POP JUMP JUMPDEST PUSH1 0x0 PUSH2 0x1B77 PUSH2 0x1B72 DUP4 PUSH2 0x1B57 JUMP JUMPDEST PUSH2 0x1761 JUMP JUMPDEST SWAP1 POP SWAP2 SWAP1 POP JUMP JUMPDEST PUSH1 0x0 DUP2 PUSH1 0xD8 SHR SWAP1 POP SWAP2 SWAP1 POP JUMP JUMPDEST PUSH1 0x0 PUSH2 0x1B9E PUSH2 0x1B99 DUP4 PUSH2 0x1B7E JUMP JUMPDEST PUSH2 0x1761 JUMP JUMPDEST SWAP1 POP SWAP2 SWAP1 POP JUMP JUMPDEST PUSH1 0x0 DUP2 PUSH1 0xE0 SHR SWAP1 POP SWAP2 SWAP1 POP JUMP JUMPDEST PUSH1 0x0 PUSH2 0x1BC5 PUSH2 0x1BC0 DUP4 PUSH2 0x1BA5 JUMP JUMPDEST PUSH2 0x1761 JUMP JUMPDEST SWAP1 POP SWAP2 SWAP1 POP JUMP JUMPDEST PUSH1 0x0 DUP2 PUSH1 0xE8 SHR SWAP1 POP SWAP2 SWAP1 POP JUMP JUMPDEST PUSH1 0x0 PUSH2 0x1BEC PUSH2 0x1BE7 DUP4 PUSH2 0x1BCC JUMP JUMPDEST PUSH2 0x1761 JUMP JUMPDEST SWAP1 POP SWAP2 SWAP1 POP JUMP JUMPDEST PUSH1 0x0 DUP2 PUSH1 0xF0 SHR SWAP1 POP SWAP2 SWAP1 POP JUMP JUMPDEST PUSH1 0x0 PUSH2 0x1C13 PUSH2 0x1C0E DUP4 PUSH2 0x1BF3 JUMP JUMPDEST PUSH2 0x1761 JUMP JUMPDEST SWAP1 POP SWAP2 SWAP1 POP JUMP JUMPDEST PUSH1 0x0 DUP2 PUSH1 0xF8 SHR SWAP1 POP SWAP2 SWAP1 POP JUMP JUMPDEST PUSH1 0x0 PUSH2 0x1C3A PUSH2 0x1C35 DUP4 PUSH2 0x1C1A JUMP JUMPDEST PUSH2 0x1761 JUMP JUMPDEST SWAP1 POP SWAP2 SWAP1 POP JUMP JUMPDEST PUSH2 0x1C4A DUP2 PUSH2 0x173F JUMP JUMPDEST PUSH2 0x1C54 DUP2 DUP5 PUSH2 0x152A JUMP JUMPDEST SWAP3 POP DUP3 PUSH2 0x1C60 DUP4 PUSH2 0x174A JUMP JUMPDEST PUSH1 0x0 DUP1 ISZERO PUSH2 0x1F8C JUMPI JUMPDEST DUP4 PUSH1 0x1 PUSH1 0x20 SUB DUP3 ADD LT ISZERO PUSH2 0x1F8B JUMPI DUP2 SLOAD PUSH2 0x1C8B DUP8 PUSH2 0x1C86 DUP4 PUSH2 0x176E JUMP JUMPDEST PUSH2 0x154C JUMP JUMPDEST PUSH1 0x20 DUP8 ADD SWAP7 POP PUSH2 0x1CA3 DUP8 PUSH2 0x1C9E DUP4 PUSH2 0x1795 JUMP JUMPDEST PUSH2 0x154C JUMP JUMPDEST PUSH1 0x20 DUP8 ADD SWAP7 POP PUSH2 0x1CBB DUP8 PUSH2 0x1CB6 DUP4 PUSH2 0x17BC JUMP JUMPDEST PUSH2 0x154C JUMP JUMPDEST PUSH1 0x20 DUP8 ADD SWAP7 POP PUSH2 0x1CD3 DUP8 PUSH2 0x1CCE DUP4 PUSH2 0x17E3 JUMP JUMPDEST PUSH2 0x154C JUMP JUMPDEST PUSH1 0x20 DUP8 ADD SWAP7 POP PUSH2 0x1CEB DUP8 PUSH2 0x1CE6 DUP4 PUSH2 0x180A JUMP JUMPDEST PUSH2 0x154C JUMP JUMPDEST PUSH1 0x20 DUP8 ADD SWAP7 POP PUSH2 0x1D03 DUP8 PUSH2 0x1CFE DUP4 PUSH2 0x1831 JUMP JUMPDEST PUSH2 0x154C JUMP JUMPDEST PUSH1 0x20 DUP8 ADD SWAP7 POP PUSH2 0x1D1B DUP8 PUSH2 0x1D16 DUP4 PUSH2 0x1858 JUMP JUMPDEST PUSH2 0x154C JUMP JUMPDEST PUSH1 0x20 DUP8 ADD SWAP7 POP PUSH2 0x1D33 DUP8 PUSH2 0x1D2E DUP4 PUSH2 0x187F JUMP JUMPDEST PUSH2 0x154C JUMP JUMPDEST PUSH1 0x20 DUP8 ADD SWAP7 POP PUSH2 0x1D4B DUP8 PUSH2 0x1D46 DUP4 PUSH2 0x18A6 JUMP JUMPDEST PUSH2 0x154C JUMP JUMPDEST PUSH1 0x20 DUP8 ADD SWAP7 POP PUSH2 0x1D63 DUP8 PUSH2 0x1D5E DUP4 PUSH2 0x18CD JUMP JUMPDEST PUSH2 0x154C JUMP JUMPDEST PUSH1 0x20 DUP8 ADD SWAP7 POP PUSH2 0x1D7B DUP8 PUSH2 0x1D76 DUP4 PUSH2 0x18F4 JUMP JUMPDEST PUSH2 0x154C JUMP JUMPDEST PUSH1 0x20 DUP8 ADD SWAP7 POP PUSH2 0x1D93 DUP8 PUSH2 0x1D8E DUP4 PUSH2 0x191B JUMP JUMPDEST PUSH2 0x154C JUMP JUMPDEST PUSH1 0x20 DUP8 ADD SWAP7 POP PUSH2 0x1DAB DUP8 PUSH2 0x1DA6 DUP4 PUSH2 0x1942 JUMP JUMPDEST PUSH2 0x154C JUMP JUMPDEST PUSH1 0x20 DUP8 ADD SWAP7 POP PUSH2 0x1DC3 DUP8 PUSH2 0x1DBE DUP4 PUSH2 0x1969 JUMP JUMPDEST PUSH2 0x154C JUMP JUMPDEST PUSH1 0x20 DUP8 ADD SWAP7 POP PUSH2 0x1DDB DUP8 PUSH2 0x1DD6 DUP4 PUSH2 0x1990 JUMP JUMPDEST PUSH2 0x154C JUMP JUMPDEST PUSH1 0x20 DUP8 ADD SWAP7 POP PUSH2 0x1DF3 DUP8 PUSH2 0x1DEE DUP4 PUSH2 0x19B7 JUMP JUMPDEST PUSH2 0x154C JUMP JUMPDEST PUSH1 0x20 DUP8 ADD SWAP7 POP PUSH2 0x1E0B DUP8 PUSH2 0x1E06 DUP4 PUSH2 0x19DE JUMP JUMPDEST PUSH2 0x154C JUMP JUMPDEST PUSH1 0x20 DUP8 ADD SWAP7 POP PUSH2 0x1E23 DUP8 PUSH2 0x1E1E DUP4 PUSH2 0x1A05 JUMP JUMPDEST PUSH2 0x154C JUMP JUMPDEST PUSH1 0x20 DUP8 ADD SWAP7 POP PUSH2 0x1E3B DUP8 PUSH2 0x1E36 DUP4 PUSH2 0x1A2C JUMP JUMPDEST PUSH2 0x154C JUMP JUMPDEST PUSH1 0x20 DUP8 ADD SWAP7 POP PUSH2 0x1E53 DUP8 PUSH2 0x1E4E DUP4 PUSH2 0x1A53 JUMP JUMPDEST PUSH2 0x154C JUMP JUMPDEST PUSH1 0x20 DUP8 ADD SWAP7 POP PUSH2 0x1E6B DUP8 PUSH2 0x1E66 DUP4 PUSH2 0x1A7A JUMP JUMPDEST PUSH2 0x154C JUMP JUMPDEST PUSH1 0x20 DUP8 ADD SWAP7 POP PUSH2 0x1E83 DUP8 PUSH2 0x1E7E DUP4 PUSH2 0x1AA1 JUMP JUMPDEST PUSH2 0x154C JUMP JUMPDEST PUSH1 0x20 DUP8 ADD SWAP7 POP PUSH2 0x1E9B DUP8 PUSH2 0x1E96 DUP4 PUSH2 0x1AC8 JUMP JUMPDEST PUSH2 0x154C JUMP JUMPDEST PUSH1 0x20 DUP8 ADD SWAP7 POP PUSH2 0x1EB3 DUP8 PUSH2 0x1EAE DUP4 PUSH2 0x1AEF JUMP JUMPDEST PUSH2 0x154C JUMP JUMPDEST PUSH1 0x20 DUP8 ADD SWAP7 POP PUSH2 0x1ECB DUP8 PUSH2 0x1EC6 DUP4 PUSH2 0x1B16 JUMP JUMPDEST PUSH2 0x154C JUMP JUMPDEST PUSH1 0x20 DUP8 ADD SWAP7 POP PUSH2 0x1EE3 DUP8 PUSH2 0x1EDE DUP4 PUSH2 0x1B3D JUMP JUMPDEST PUSH2 0x154C JUMP JUMPDEST PUSH1 0x20 DUP8 ADD SWAP7 POP PUSH2 0x1EFB DUP8 PUSH2 0x1EF6 DUP4 PUSH2 0x1B64 JUMP JUMPDEST PUSH2 0x154C JUMP JUMPDEST PUSH1 0x20 DUP8 ADD SWAP7 POP PUSH2 0x1F13 DUP8 PUSH2 0x1F0E DUP4 PUSH2 0x1B8B JUMP JUMPDEST PUSH2 0x154C JUMP JUMPDEST PUSH1 0x20 DUP8 ADD SWAP7 POP PUSH2 0x1F2B DUP8 PUSH2 0x1F26 DUP4 PUSH2 0x1BB2 JUMP JUMPDEST PUSH2 0x154C JUMP JUMPDEST PUSH1 0x20 DUP8 ADD SWAP7 POP PUSH2 0x1F43 DUP8 PUSH2 0x1F3E DUP4 PUSH2 0x1BD9 JUMP JUMPDEST PUSH2 0x154C JUMP JUMPDEST PUSH1 0x20 DUP8 ADD SWAP7 POP PUSH2 0x1F5B DUP8 PUSH2 0x1F56 DUP4 PUSH2 0x1C00 JUMP JUMPDEST PUSH2 0x154C JUMP JUMPDEST PUSH1 0x20 DUP8 ADD SWAP7 POP PUSH2 0x1F73 DUP8 PUSH2 0x1F6E DUP4 PUSH2 0x1C27 JUMP JUMPDEST PUSH2 0x154C JUMP JUMPDEST PUSH1 0x20 DUP8 ADD SWAP7 POP PUSH1 0x1 DUP4 ADD SWAP3 POP POP PUSH1 0x20 DUP2 ADD SWAP1 POP PUSH2 0x1C69 JUMP JUMPDEST JUMPDEST PUSH1 0x1 ISZERO PUSH2 0x2457 JUMPI DUP2 SLOAD PUSH1 0x1 ISZERO PUSH2 0x1FBB JUMPI PUSH2 0x1FAE DUP8 PUSH2 0x1FA9 DUP4 PUSH2 0x176E JUMP JUMPDEST PUSH2 0x154C JUMP JUMPDEST PUSH1 0x20 DUP8 ADD SWAP7 POP PUSH1 0x1 DUP3 ADD SWAP2 POP JUMPDEST PUSH1 0x1 ISZERO PUSH2 0x1FE1 JUMPI PUSH2 0x1FD4 DUP8 PUSH2 0x1FCF DUP4 PUSH2 0x1795 JUMP JUMPDEST PUSH2 0x154C JUMP JUMPDEST PUSH1 0x20 DUP8 ADD SWAP7 POP PUSH1 0x1 DUP3 ADD SWAP2 POP JUMPDEST PUSH1 0x1 ISZERO PUSH2 0x2007 JUMPI PUSH2 0x1FFA DUP8 PUSH2 0x1FF5 DUP4 PUSH2 0x17BC JUMP JUMPDEST PUSH2 0x154C JUMP JUMPDEST PUSH1 0x20 DUP8 ADD SWAP7 POP PUSH1 0x1 DUP3 ADD SWAP2 POP JUMPDEST PUSH1 0x1 ISZERO PUSH2 0x202D JUMPI PUSH2 0x2020 DUP8 PUSH2 0x201B DUP4 PUSH2 0x17E3 JUMP JUMPDEST PUSH2 0x154C JUMP JUMPDEST PUSH1 0x20 DUP8 ADD SWAP7 POP PUSH1 0x1 DUP3 ADD SWAP2 POP JUMPDEST PUSH1 0x1 ISZERO PUSH2 0x2053 JUMPI PUSH2 0x2046 DUP8 PUSH2 0x2041 DUP4 PUSH2 0x180A JUMP JUMPDEST PUSH2 0x154C JUMP JUMPDEST PUSH1 0x20 DUP8 ADD SWAP7 POP PUSH1 0x1 DUP3 ADD SWAP2 POP JUMPDEST PUSH1 0x1 ISZERO PUSH2 0x2079 JUMPI PUSH2 0x206C DUP8 PUSH2 0x2067 DUP4 PUSH2 0x1831 JUMP JUMPDEST PUSH2 0x154C JUMP JUMPDEST PUSH1 0x20 DUP8 ADD SWAP7 POP PUSH1 0x1 DUP3 ADD SWAP2 POP JUMPDEST PUSH1 0x1 ISZERO PUSH2 0x209F JUMPI PUSH2 0x2092 DUP8 PUSH2 0x208D DUP4 PUSH2 0x1858 JUMP JUMPDEST PUSH2 0x154C JUMP JUMPDEST PUSH1 0x20 DUP8 ADD SWAP7 POP PUSH1 0x1 DUP3 ADD SWAP2 POP JUMPDEST PUSH1 0x1 ISZERO PUSH2 0x20C5 JUMPI PUSH2 0x20B8 DUP8 PUSH2 0x20B3 DUP4 PUSH2 0x187F JUMP JUMPDEST PUSH2 0x154C JUMP JUMPDEST PUSH1 0x20 DUP8 ADD SWAP7 POP PUSH1 0x1 DUP3 ADD SWAP2 POP JUMPDEST PUSH1 0x1 ISZERO PUSH2 0x20EB JUMPI PUSH2 0x20DE DUP8 PUSH2 0x20D9 DUP4 PUSH2 0x18A6 JUMP JUMPDEST PUSH2 0x154C JUMP JUMPDEST PUSH1 0x20 DUP8 ADD SWAP7 POP PUSH1 0x1 DUP3 ADD SWAP2 POP JUMPDEST PUSH1 0x0 ISZERO PUSH2 0x2111 JUMPI PUSH2 0x2104 DUP8 PUSH2 0x20FF DUP4 PUSH2 0x18CD JUMP JUMPDEST PUSH2 0x154C JUMP JUMPDEST PUSH1 0x20 DUP8 ADD SWAP7 POP PUSH1 0x1 DUP3 ADD SWAP2 POP JUMPDEST PUSH1 0x0 ISZERO PUSH2 0x2137 JUMPI PUSH2 0x212A DUP8 PUSH2 0x2125 DUP4 PUSH2 0x18F4 JUMP JUMPDEST PUSH2 0x154C JUMP JUMPDEST PUSH1 0x20 DUP8 ADD SWAP7 POP PUSH1 0x1 DUP3 ADD SWAP2 POP JUMPDEST PUSH1 0x0 ISZERO PUSH2 0x215D JUMPI PUSH2 0x2150 DUP8 PUSH2 0x214B DUP4 PUSH2 0x191B JUMP JUMPDEST PUSH2 0x154C JUMP JUMPDEST PUSH1 0x20 DUP8 ADD SWAP7 POP PUSH1 0x1 DUP3 ADD SWAP2 POP JUMPDEST PUSH1 0x0 ISZERO PUSH2 0x2183 JUMPI PUSH2 0x2176 DUP8 PUSH2 0x2171 DUP4 PUSH2 0x1942 JUMP JUMPDEST PUSH2 0x154C JUMP JUMPDEST PUSH1 0x20 DUP8 ADD SWAP7 POP PUSH1 0x1 DUP3 ADD SWAP2 POP JUMPDEST PUSH1 0x0 ISZERO PUSH2 0x21A9 JUMPI PUSH2 0x219C DUP8 PUSH2 0x2197 DUP4 PUSH2 0x1969 JUMP JUMPDEST PUSH2 0x154C JUMP JUMPDEST PUSH1 0x20 DUP8 ADD SWAP7 POP PUSH1 0x1 DUP3 ADD SWAP2 POP JUMPDEST PUSH1 0x0 ISZERO PUSH2 0x21CF JUMPI PUSH2 0x21C2 DUP8 PUSH2 0x21BD DUP4 PUSH2 0x1990 JUMP JUMPDEST PUSH2 0x154C JUMP JUMPDEST PUSH1 0x20 DUP8 ADD SWAP7 POP PUSH1 0x1 DUP3 ADD SWAP2 POP JUMPDEST PUSH1 0x0 ISZERO PUSH2 0x21F5 JUMPI PUSH2 0x21E8 DUP8 PUSH2 0x21E3 DUP4 PUSH2 0x19B7 JUMP JUMPDEST PUSH2 0x154C JUMP JUMPDEST PUSH1 0x20 DUP8 ADD SWAP7 POP PUSH1 0x1 DUP3 ADD SWAP2 POP JUMPDEST PUSH1 0x0 ISZERO PUSH2 0x221B JUMPI PUSH2 0x220E DUP8 PUSH2 0x2209 DUP4 PUSH2 0x19DE JUMP JUMPDEST PUSH2 0x154C JUMP JUMPDEST PUSH1 0x20 DUP8 ADD SWAP7 POP PUSH1 0x1 DUP3 ADD SWAP2 POP JUMPDEST PUSH1 0x0 ISZERO PUSH2 0x2241 JUMPI PUSH2 0x2234 DUP8 PUSH2 0x222F DUP4 PUSH2 0x1A05 JUMP JUMPDEST PUSH2 0x154C JUMP JUMPDEST PUSH1 0x20 DUP8 ADD SWAP7 POP PUSH1 0x1 DUP3 ADD SWAP2 POP JUMPDEST PUSH1 0x0 ISZERO PUSH2 0x2267 JUMPI PUSH2 0x225A DUP8 PUSH2 0x2255 DUP4 PUSH2 0x1A2C JUMP JUMPDEST PUSH2 0x154C JUMP JUMPDEST PUSH1 0x20 DUP8 ADD SWAP7 POP PUSH1 0x1 DUP3 ADD SWAP2 POP JUMPDEST PUSH1 0x0 ISZERO PUSH2 0x228D JUMPI PUSH2 0x2280 DUP8 PUSH2 0x227B DUP4 PUSH2 0x1A53 JUMP JUMPDEST PUSH2 0x154C JUMP JUMPDEST PUSH1 0x20 DUP8 ADD SWAP7 POP PUSH1 0x1 DUP3 ADD SWAP2 POP JUMPDEST PUSH1 0x0 ISZERO PUSH2 0x22B3 JUMPI PUSH2 0x22A6 DUP8 PUSH2 0x22A1 DUP4 PUSH2 0x1A7A JUMP JUMPDEST PUSH2 0x154C JUMP JUMPDEST PUSH1 0x20 DUP8 ADD SWAP7 POP PUSH1 0x1 DUP3 ADD SWAP2 POP JUMPDEST PUSH1 0x0 ISZERO PUSH2 0x22D9 JUMPI PUSH2 0x22CC DUP8 PUSH2 0x22C7 DUP4 PUSH2 0x1AA1 JUMP JUMPDEST PUSH2 0x154C JUMP JUMPDEST PUSH1 0x20 DUP8 ADD SWAP7 POP PUSH1 0x1 DUP3 ADD SWAP2 POP JUMPDEST PUSH1 0x0 ISZERO PUSH2 0x22FF JUMPI PUSH2 0x22F2 DUP8 PUSH2 0x22ED DUP4 PUSH2 0x1AC8 JUMP JUMPDEST PUSH2 0x154C JUMP JUMPDEST PUSH1 0x20 DUP8 ADD SWAP7 POP PUSH1 0x1 DUP3 ADD SWAP2 POP JUMPDEST PUSH1 0x0 ISZERO PUSH2 0x2325 JUMPI PUSH2 0x2318 DUP8 PUSH2 0x2313 DUP4 PUSH2 0x1AEF JUMP JUMPDEST PUSH2 0x154C JUMP JUMPDEST PUSH1 0x20 DUP8 ADD SWAP7 POP PUSH1 0x1 DUP3 ADD SWAP2 POP JUMPDEST PUSH1 0x0 ISZERO PUSH2 0x234B JUMPI PUSH2 0x233E DUP8 PUSH2 0x2339 DUP4 PUSH2 0x1B16 JUMP JUMPDEST PUSH2 0x154C JUMP JUMPDEST PUSH1 0x20 DUP8 ADD SWAP7 POP PUSH1 0x1 DUP3 ADD SWAP2 POP JUMPDEST PUSH1 0x0 ISZERO PUSH2 0x2371 JUMPI PUSH2 0x2364 DUP8 PUSH2 0x235F DUP4 PUSH2 0x1B3D JUMP JUMPDEST PUSH2 0x154C JUMP JUMPDEST PUSH1 0x20 DUP8 ADD SWAP7 POP PUSH1 0x1 DUP3 ADD SWAP2 POP JUMPDEST PUSH1 0x0 ISZERO PUSH2 0x2397 JUMPI PUSH2 0x238A DUP8 PUSH2 0x2385 DUP4 PUSH2 0x1B64 JUMP JUMPDEST PUSH2 0x154C JUMP JUMPDEST PUSH1 0x20 DUP8 ADD SWAP7 POP PUSH1 0x1 DUP3 ADD SWAP2 POP JUMPDEST PUSH1 0x0 ISZERO PUSH2 0x23BD JUMPI PUSH2 0x23B0 DUP8 PUSH2 0x23AB DUP4 PUSH2 0x1B8B JUMP JUMPDEST PUSH2 0x154C JUMP JUMPDEST PUSH1 0x20 DUP8 ADD SWAP7 POP PUSH1 0x1 DUP3 ADD SWAP2 POP JUMPDEST PUSH1 0x0 ISZERO PUSH2 0x23E3 JUMPI PUSH2 0x23D6 DUP8 PUSH2 0x23D1 DUP4 PUSH2 0x1BB2 JUMP JUMPDEST PUSH2 0x154C JUMP JUMPDEST PUSH1 0x20 DUP8 ADD SWAP7 POP PUSH1 0x1 DUP3 ADD SWAP2 POP JUMPDEST PUSH1 0x0 ISZERO PUSH2 0x2409 JUMPI PUSH2 0x23FC DUP8 PUSH2 0x23F7 DUP4 PUSH2 0x1BD9 JUMP JUMPDEST PUSH2 0x154C JUMP JUMPDEST PUSH1 0x20 DUP8 ADD SWAP7 POP PUSH1 0x1 DUP3 ADD SWAP2 POP JUMPDEST PUSH1 0x0 ISZERO PUSH2 0x242F JUMPI PUSH2 0x2422 DUP8 PUSH2 0x241D DUP4 PUSH2 0x1C00 JUMP JUMPDEST PUSH2 0x154C JUMP JUMPDEST PUSH1 0x20 DUP8 ADD SWAP7 POP PUSH1 0x1 DUP3 ADD SWAP2 POP JUMPDEST PUSH1 0x0 ISZERO PUSH2 0x2455 JUMPI PUSH2 0x2448 DUP8 PUSH2 0x2443 DUP4 PUSH2 0x1C27 JUMP JUMPDEST PUSH2 0x154C JUMP JUMPDEST PUSH1 0x20 DUP8 ADD SWAP7 POP PUSH1 0x1 DUP3 ADD SWAP2 POP JUMPDEST POP JUMPDEST POP POP POP POP POP POP JUMP JUMPDEST PUSH1 0x0 PUSH2 0x140 DUP3 ADD SWAP1 POP PUSH2 0x2475 PUSH1 0x0 DUP4 ADD DUP6 PUSH2 0x165B JUMP JUMPDEST PUSH2 0x2482 PUSH1 0x20 DUP4 ADD DUP5 PUSH2 0x1C41 JUMP JUMPDEST SWAP4 SWAP3 POP POP POP JUMP JUMPDEST PUSH1 0x0 DUP3 DUP3 MSTORE PUSH1 0x20 DUP3 ADD SWAP1 POP SWAP3 SWAP2 POP POP JUMP JUMPDEST PUSH32 0x47616D65206E6F7420656E646564207965740000000000000000000000000000 PUSH1 0x0 DUP3 ADD MSTORE POP JUMP JUMPDEST PUSH1 0x0 PUSH2 0x24D0 PUSH1 0x12 DUP4 PUSH2 0x2489 JUMP JUMPDEST SWAP2 POP PUSH2 0x24DB DUP3 PUSH2 0x249A JUMP JUMPDEST PUSH1 0x20 DUP3 ADD SWAP1 POP SWAP2 SWAP1 POP JUMP JUMPDEST PUSH1 0x0 PUSH1 0x20 DUP3 ADD SWAP1 POP DUP2 DUP2 SUB PUSH1 0x0 DUP4 ADD MSTORE PUSH2 0x24FF DUP2 PUSH2 0x24C3 JUMP JUMPDEST SWAP1 POP SWAP2 SWAP1 POP JUMP JUMPDEST PUSH32 0x4F6E6C79207468652077696E6E6572206F7220706C617965727320696E206361 PUSH1 0x0 DUP3 ADD MSTORE PUSH32 0x7365206F6620647261772063616E20636C61696D207468652072657761726400 PUSH1 0x20 DUP3 ADD MSTORE POP JUMP JUMPDEST PUSH1 0x0 PUSH2 0x2562 PUSH1 0x3F DUP4 PUSH2 0x2489 JUMP JUMPDEST SWAP2 POP PUSH2 0x256D DUP3 PUSH2 0x2506 JUMP JUMPDEST PUSH1 0x40 DUP3 ADD SWAP1 POP SWAP2 SWAP1 POP JUMP JUMPDEST PUSH1 0x0 PUSH1 0x20 DUP3 ADD SWAP1 POP DUP2 DUP2 SUB PUSH1 0x0 DUP4 ADD MSTORE PUSH2 0x2591 DUP2 PUSH2 0x2555 JUMP JUMPDEST SWAP1 POP SWAP2 SWAP1 POP JUMP JUMPDEST PUSH32 0x4E487B7100000000000000000000000000000000000000000000000000000000 PUSH1 0x0 MSTORE PUSH1 0x12 PUSH1 0x4 MSTORE PUSH1 0x24 PUSH1 0x0 REVERT JUMPDEST PUSH32 0x4E487B7100000000000000000000000000000000000000000000000000000000 PUSH1 0x0 MSTORE PUSH1 0x11 PUSH1 0x4 MSTORE PUSH1 0x24 PUSH1 0x0 REVERT JUMPDEST PUSH1 0x0 PUSH2 0x2601 DUP3 PUSH2 0x14EB JUMP JUMPDEST SWAP2 POP PUSH2 0x260C DUP4 PUSH2 0x14EB JUMP JUMPDEST SWAP3 POP DUP3 PUSH2 0x261C JUMPI PUSH2 0x261B PUSH2 0x2598 JUMP JUMPDEST JUMPDEST DUP3 DUP3 DIV SWAP1 POP SWAP3 SWAP2 POP POP JUMP JUMPDEST PUSH32 0x47616D6520616C72656164792073746172746564000000000000000000000000 PUSH1 0x0 DUP3 ADD MSTORE POP JUMP JUMPDEST PUSH1 0x0 PUSH2 0x265D PUSH1 0x14 DUP4 PUSH2 0x2489 JUMP JUMPDEST SWAP2 POP PUSH2 0x2668 DUP3 PUSH2 0x2627 JUMP JUMPDEST PUSH1 0x20 DUP3 ADD SWAP1 POP SWAP2 SWAP1 POP JUMP JUMPDEST PUSH1 0x0 PUSH1 0x20 DUP3 ADD SWAP1 POP DUP2 DUP2 SUB PUSH1 0x0 DUP4 ADD MSTORE PUSH2 0x268C DUP2 PUSH2 0x2650 JUMP JUMPDEST SWAP1 POP SWAP2 SWAP1 POP JUMP JUMPDEST PUSH32 0x596F75206861766520616C7265616479206A6F696E6564000000000000000000 PUSH1 0x0 DUP3 ADD MSTORE POP JUMP JUMPDEST PUSH1 0x0 PUSH2 0x26C9 PUSH1 0x17 DUP4 PUSH2 0x2489 JUMP JUMPDEST SWAP2 POP PUSH2 0x26D4 DUP3 PUSH2 0x2693 JUMP JUMPDEST PUSH1 0x20 DUP3 ADD SWAP1 POP SWAP2 SWAP1 POP JUMP JUMPDEST PUSH1 0x0 PUSH1 0x20 DUP3 ADD SWAP1 POP DUP2 DUP2 SUB PUSH1 0x0 DUP4 ADD MSTORE PUSH2 0x26F8 DUP2 PUSH2 0x26BC JUMP JUMPDEST SWAP1 POP SWAP2 SWAP1 POP JUMP JUMPDEST PUSH32 0x4D696E696D756D207374616B6520697320302C303031204554482E0000000000 PUSH1 0x0 DUP3 ADD MSTORE POP JUMP JUMPDEST PUSH1 0x0 PUSH2 0x2735 PUSH1 0x1B DUP4 PUSH2 0x2489 JUMP JUMPDEST SWAP2 POP PUSH2 0x2740 DUP3 PUSH2 0x26FF JUMP JUMPDEST PUSH1 0x20 DUP3 ADD SWAP1 POP SWAP2 SWAP1 POP JUMP JUMPDEST PUSH1 0x0 PUSH1 0x20 DUP3 ADD SWAP1 POP DUP2 DUP2 SUB PUSH1 0x0 DUP4 ADD MSTORE PUSH2 0x2764 DUP2 PUSH2 0x2728 JUMP JUMPDEST SWAP1 POP SWAP2 SWAP1 POP JUMP JUMPDEST PUSH1 0x0 PUSH2 0x2776 DUP3 PUSH2 0x14EB JUMP JUMPDEST SWAP2 POP PUSH2 0x2781 DUP4 PUSH2 0x14EB JUMP JUMPDEST SWAP3 POP DUP3 DUP3 ADD SWAP1 POP DUP1 DUP3 GT ISZERO PUSH2 0x2799 JUMPI PUSH2 0x2798 PUSH2 0x25C7 JUMP JUMPDEST JUMPDEST SWAP3 SWAP2 POP POP JUMP JUMPDEST PUSH32 0x496E76616C696420706C61796572206F722067616D6520737461746500000000 PUSH1 0x0 DUP3 ADD MSTORE POP JUMP JUMPDEST PUSH1 0x0 PUSH2 0x27D5 PUSH1 0x1C DUP4 PUSH2 0x2489 JUMP JUMPDEST SWAP2 POP PUSH2 0x27E0 DUP3 PUSH2 0x279F JUMP JUMPDEST PUSH1 0x20 DUP3 ADD SWAP1 POP SWAP2 SWAP1 POP JUMP JUMPDEST PUSH1 0x0 PUSH1 0x20 DUP3 ADD SWAP1 POP DUP2 DUP2 SUB PUSH1 0x0 DUP4 ADD MSTORE PUSH2 0x2804 DUP2 PUSH2 0x27C8 JUMP JUMPDEST SWAP1 POP SWAP2 SWAP1 POP JUMP JUMPDEST PUSH32 0x496E646578206F7574206F6620626F756E647300000000000000000000000000 PUSH1 0x0 DUP3 ADD MSTORE POP JUMP JUMPDEST PUSH1 0x0 PUSH2 0x2841 PUSH1 0x13 DUP4 PUSH2 0x2489 JUMP JUMPDEST SWAP2 POP PUSH2 0x284C DUP3 PUSH2 0x280B JUMP JUMPDEST PUSH1 0x20 DUP3 ADD SWAP1 POP SWAP2 SWAP1 POP JUMP JUMPDEST PUSH1 0x0 PUSH1 0x20 DUP3 ADD SWAP1 POP DUP2 DUP2 SUB PUSH1 0x0 DUP4 ADD MSTORE PUSH2 0x2870 DUP2 PUSH2 0x2834 JUMP JUMPDEST SWAP1 POP SWAP2 SWAP1 POP JUMP JUMPDEST PUSH32 0x4E487B7100000000000000000000000000000000000000000000000000000000 PUSH1 0x0 MSTORE PUSH1 0x32 PUSH1 0x4 MSTORE PUSH1 0x24 PUSH1 0x0 REVERT JUMPDEST PUSH32 0x53717561726520616C72656164792066696C6C65640000000000000000000000 PUSH1 0x0 DUP3 ADD MSTORE POP JUMP JUMPDEST PUSH1 0x0 PUSH2 0x28DC PUSH1 0x15 DUP4 PUSH2 0x2489 JUMP JUMPDEST SWAP2 POP PUSH2 0x28E7 DUP3 PUSH2 0x28A6 JUMP JUMPDEST PUSH1 0x20 DUP3 ADD SWAP1 POP SWAP2 SWAP1 POP JUMP JUMPDEST PUSH1 0x0 PUSH1 0x20 DUP3 ADD SWAP1 POP DUP2 DUP2 SUB PUSH1 0x0 DUP4 ADD MSTORE PUSH2 0x290B DUP2 PUSH2 0x28CF JUMP JUMPDEST SWAP1 POP SWAP2 SWAP1 POP JUMP INVALID LOG2 PUSH5 0x6970667358 0x22 SLT KECCAK256 0xB0 0xC5 STOP 0xA6 BLOCKHASH 0xCE MSTORE8 PUSH7 0xBFA114324C93A8 0xA9 0xCD PUSH10 0x853FABE9FB4DA842F2B1 REVERT 0xE2 MULMOD RETURNDATACOPY PUSH5 0x736F6C6343 STOP ADDMOD XOR STOP CALLER "
        },
        "methodIdentifiers": {
          "claimReward()": "b88a802f",
          "getCurrentBoard()": "4410b66f",
          "getGameState()": "b7d0628b",
          "getPlayerO()": "c06af996",
          "getPlayerX()": "d9a4264c",
          "getPot()": "403c9fa8",
          "handlePlay(uint8)": "da399dfd",
          "joinGame()": "d4f77b1c",
          "resetBoard()": "455a2939"
        }
      }
    }
  }
}